{"contracts/LuxLinkNFT.sol":{"LuxLinkNFT":{"abi":[{"inputs":[{"internalType":"address","name":"initialOwner","type":"address"}],"stateMutability":"nonpayable","type":"constructor"},{"inputs":[],"name":"ECDSAInvalidSignature","type":"error"},{"inputs":[{"internalType":"uint256","name":"length","type":"uint256"}],"name":"ECDSAInvalidSignatureLength","type":"error"},{"inputs":[{"internalType":"bytes32","name":"s","type":"bytes32"}],"name":"ECDSAInvalidSignatureS","type":"error"},{"inputs":[{"internalType":"address","name":"sender","type":"address"},{"internalType":"uint256","name":"tokenId","type":"uint256"},{"internalType":"address","name":"owner","type":"address"}],"name":"ERC721IncorrectOwner","type":"error"},{"inputs":[{"internalType":"address","name":"operator","type":"address"},{"internalType":"uint256","name":"tokenId","type":"uint256"}],"name":"ERC721InsufficientApproval","type":"error"},{"inputs":[{"internalType":"address","name":"approver","type":"address"}],"name":"ERC721InvalidApprover","type":"error"},{"inputs":[{"internalType":"address","name":"operator","type":"address"}],"name":"ERC721InvalidOperator","type":"error"},{"inputs":[{"internalType":"address","name":"owner","type":"address"}],"name":"ERC721InvalidOwner","type":"error"},{"inputs":[{"internalType":"address","name":"receiver","type":"address"}],"name":"ERC721InvalidReceiver","type":"error"},{"inputs":[{"internalType":"address","name":"sender","type":"address"}],"name":"ERC721InvalidSender","type":"error"},{"inputs":[{"internalType":"uint256","name":"tokenId","type":"uint256"}],"name":"ERC721NonexistentToken","type":"error"},{"inputs":[{"internalType":"address","name":"owner","type":"address"}],"name":"OwnableInvalidOwner","type":"error"},{"inputs":[{"internalType":"address","name":"account","type":"address"}],"name":"OwnableUnauthorizedAccount","type":"error"},{"anonymous":false,"inputs":[{"indexed":true,"internalType":"address","name":"owner","type":"address"},{"indexed":true,"internalType":"address","name":"approved","type":"address"},{"indexed":true,"internalType":"uint256","name":"tokenId","type":"uint256"}],"name":"Approval","type":"event"},{"anonymous":false,"inputs":[{"indexed":true,"internalType":"address","name":"owner","type":"address"},{"indexed":true,"internalType":"address","name":"operator","type":"address"},{"indexed":false,"internalType":"bool","name":"approved","type":"bool"}],"name":"ApprovalForAll","type":"event"},{"anonymous":false,"inputs":[{"indexed":false,"internalType":"uint256","name":"_fromTokenId","type":"uint256"},{"indexed":false,"internalType":"uint256","name":"_toTokenId","type":"uint256"}],"name":"BatchMetadataUpdate","type":"event"},{"anonymous":false,"inputs":[{"indexed":true,"internalType":"address","name":"manufacturer","type":"address"},{"indexed":false,"internalType":"string","name":"brandName","type":"string"}],"name":"ManufacturerRegistered","type":"event"},{"anonymous":false,"inputs":[{"indexed":true,"internalType":"address","name":"manufacturer","type":"address"}],"name":"ManufacturerRemoved","type":"event"},{"anonymous":false,"inputs":[{"indexed":false,"internalType":"uint256","name":"_tokenId","type":"uint256"}],"name":"MetadataUpdate","type":"event"},{"anonymous":false,"inputs":[{"indexed":true,"internalType":"address","name":"previousOwner","type":"address"},{"indexed":true,"internalType":"address","name":"newOwner","type":"address"}],"name":"OwnershipTransferred","type":"event"},{"anonymous":false,"inputs":[{"indexed":true,"internalType":"address","name":"manufacturer","type":"address"},{"indexed":true,"internalType":"uint256","name":"tokenId","type":"uint256"},{"indexed":false,"internalType":"string","name":"productId","type":"string"},{"indexed":true,"internalType":"address","name":"to","type":"address"}],"name":"ProductMinted","type":"event"},{"anonymous":false,"inputs":[{"indexed":true,"internalType":"uint256","name":"tokenId","type":"uint256"},{"indexed":true,"internalType":"address","name":"from","type":"address"},{"indexed":true,"internalType":"address","name":"to","type":"address"}],"name":"ProductTransferred","type":"event"},{"anonymous":false,"inputs":[{"indexed":true,"internalType":"uint256","name":"tokenId","type":"uint256"},{"indexed":false,"internalType":"bool","name":"isAuthentic","type":"bool"},{"indexed":false,"internalType":"address","name":"verifiedBy","type":"address"}],"name":"ProductVerified","type":"event"},{"anonymous":false,"inputs":[{"indexed":true,"internalType":"address","name":"from","type":"address"},{"indexed":true,"internalType":"address","name":"to","type":"address"},{"indexed":true,"internalType":"uint256","name":"tokenId","type":"uint256"}],"name":"Transfer","type":"event"},{"inputs":[{"internalType":"address","name":"to","type":"address"},{"internalType":"uint256","name":"tokenId","type":"uint256"}],"name":"approve","outputs":[],"stateMutability":"nonpayable","type":"function"},{"inputs":[{"internalType":"address","name":"owner","type":"address"}],"name":"balanceOf","outputs":[{"internalType":"uint256","name":"","type":"uint256"}],"stateMutability":"view","type":"function"},{"inputs":[{"internalType":"string","name":"productId","type":"string"}],"name":"checkProductExists","outputs":[{"internalType":"bool","name":"exists","type":"bool"}],"stateMutability":"view","type":"function"},{"inputs":[{"internalType":"uint256","name":"tokenId","type":"uint256"}],"name":"getApproved","outputs":[{"internalType":"address","name":"","type":"address"}],"stateMutability":"view","type":"function"},{"inputs":[{"internalType":"address","name":"manufacturer","type":"address"}],"name":"getManufacturerBrand","outputs":[{"internalType":"string","name":"brandName","type":"string"}],"stateMutability":"view","type":"function"},{"inputs":[{"internalType":"address","name":"manufacturer","type":"address"}],"name":"getManufacturerTokenCount","outputs":[{"internalType":"uint256","name":"count","type":"uint256"}],"stateMutability":"view","type":"function"},{"inputs":[],"name":"getNextTokenId","outputs":[{"internalType":"uint256","name":"nextId","type":"uint256"}],"stateMutability":"view","type":"function"},{"inputs":[{"internalType":"uint256","name":"tokenId","type":"uint256"}],"name":"getProductDetails","outputs":[{"components":[{"internalType":"string","name":"productId","type":"string"},{"internalType":"address","name":"manufacturer","type":"address"},{"internalType":"bytes","name":"signature","type":"bytes"},{"internalType":"uint256","name":"mintTimestamp","type":"uint256"},{"internalType":"bool","name":"isVerified","type":"bool"}],"internalType":"struct LuxLinkNFT.ProductInfo","name":"productInfo","type":"tuple"}],"stateMutability":"view","type":"function"},{"inputs":[{"internalType":"address","name":"owner","type":"address"},{"internalType":"address","name":"operator","type":"address"}],"name":"isApprovedForAll","outputs":[{"internalType":"bool","name":"","type":"bool"}],"stateMutability":"view","type":"function"},{"inputs":[{"internalType":"address","name":"","type":"address"}],"name":"isManufacturer","outputs":[{"internalType":"bool","name":"","type":"bool"}],"stateMutability":"view","type":"function"},{"inputs":[{"internalType":"address","name":"","type":"address"}],"name":"manufacturerNames","outputs":[{"internalType":"string","name":"","type":"string"}],"stateMutability":"view","type":"function"},{"inputs":[{"internalType":"address","name":"","type":"address"}],"name":"manufacturerTokenCount","outputs":[{"internalType":"uint256","name":"","type":"uint256"}],"stateMutability":"view","type":"function"},{"inputs":[{"internalType":"uint256","name":"tokenId","type":"uint256"}],"name":"markAsUnverified","outputs":[],"stateMutability":"nonpayable","type":"function"},{"inputs":[{"internalType":"address","name":"to","type":"address"},{"internalType":"string","name":"productId","type":"string"},{"internalType":"string","name":"metadataURI","type":"string"},{"internalType":"bytes","name":"signature","type":"bytes"}],"name":"mintProductNFT","outputs":[{"internalType":"uint256","name":"","type":"uint256"}],"stateMutability":"nonpayable","type":"function"},{"inputs":[],"name":"name","outputs":[{"internalType":"string","name":"","type":"string"}],"stateMutability":"view","type":"function"},{"inputs":[],"name":"owner","outputs":[{"internalType":"address","name":"","type":"address"}],"stateMutability":"view","type":"function"},{"inputs":[{"internalType":"uint256","name":"tokenId","type":"uint256"}],"name":"ownerOf","outputs":[{"internalType":"address","name":"","type":"address"}],"stateMutability":"view","type":"function"},{"inputs":[{"internalType":"string","name":"","type":"string"}],"name":"productExists","outputs":[{"internalType":"bool","name":"","type":"bool"}],"stateMutability":"view","type":"function"},{"inputs":[{"internalType":"uint256","name":"","type":"uint256"}],"name":"products","outputs":[{"internalType":"string","name":"productId","type":"string"},{"internalType":"address","name":"manufacturer","type":"address"},{"internalType":"bytes","name":"signature","type":"bytes"},{"internalType":"uint256","name":"mintTimestamp","type":"uint256"},{"internalType":"bool","name":"isVerified","type":"bool"}],"stateMutability":"view","type":"function"},{"inputs":[{"internalType":"uint256","name":"tokenId","type":"uint256"}],"name":"reVerifyProduct","outputs":[],"stateMutability":"nonpayable","type":"function"},{"inputs":[{"internalType":"address","name":"manufacturer","type":"address"},{"internalType":"string","name":"brandName","type":"string"}],"name":"registerManufacturer","outputs":[],"stateMutability":"nonpayable","type":"function"},{"inputs":[{"internalType":"address","name":"manufacturer","type":"address"}],"name":"removeManufacturer","outputs":[],"stateMutability":"nonpayable","type":"function"},{"inputs":[],"name":"renounceOwnership","outputs":[],"stateMutability":"nonpayable","type":"function"},{"inputs":[{"internalType":"address","name":"from","type":"address"},{"internalType":"address","name":"to","type":"address"},{"internalType":"uint256","name":"tokenId","type":"uint256"}],"name":"safeTransferFrom","outputs":[],"stateMutability":"nonpayable","type":"function"},{"inputs":[{"internalType":"address","name":"from","type":"address"},{"internalType":"address","name":"to","type":"address"},{"internalType":"uint256","name":"tokenId","type":"uint256"},{"internalType":"bytes","name":"data","type":"bytes"}],"name":"safeTransferFrom","outputs":[],"stateMutability":"nonpayable","type":"function"},{"inputs":[{"internalType":"address","name":"operator","type":"address"},{"internalType":"bool","name":"approved","type":"bool"}],"name":"setApprovalForAll","outputs":[],"stateMutability":"nonpayable","type":"function"},{"inputs":[{"internalType":"bytes4","name":"interfaceId","type":"bytes4"}],"name":"supportsInterface","outputs":[{"internalType":"bool","name":"","type":"bool"}],"stateMutability":"view","type":"function"},{"inputs":[],"name":"symbol","outputs":[{"internalType":"string","name":"","type":"string"}],"stateMutability":"view","type":"function"},{"inputs":[{"internalType":"uint256","name":"tokenId","type":"uint256"}],"name":"tokenURI","outputs":[{"internalType":"string","name":"","type":"string"}],"stateMutability":"view","type":"function"},{"inputs":[{"internalType":"address","name":"from","type":"address"},{"internalType":"address","name":"to","type":"address"},{"internalType":"uint256","name":"tokenId","type":"uint256"}],"name":"transferFrom","outputs":[],"stateMutability":"nonpayable","type":"function"},{"inputs":[{"internalType":"address","name":"newOwner","type":"address"}],"name":"transferOwnership","outputs":[],"stateMutability":"nonpayable","type":"function"},{"inputs":[{"internalType":"uint256","name":"tokenId","type":"uint256"}],"name":"verifyAuthenticity","outputs":[{"internalType":"bool","name":"isAuthentic","type":"bool"},{"internalType":"string","name":"productId","type":"string"},{"internalType":"address","name":"manufacturer","type":"address"},{"internalType":"string","name":"brandName","type":"string"}],"stateMutability":"view","type":"function"}],"evm":{"bytecode":{"linkReferences":{},"object":"608060405260016008553480156200001657600080fd5b5060405162002df338038062002df383398101604081905262000039916200013b565b8060405180604001604052806012815260200171131d5e131a5b9ac8131d5e1d5c9e4813919560721b8152506040518060400160405280600681526020016513155613919560d21b815250816000908162000095919062000212565b506001620000a4828262000212565b5050506001600160a01b038116620000d657604051631e4fbdf760e01b81526000600482015260240160405180910390fd5b620000e181620000e9565b5050620002de565b600780546001600160a01b038381166001600160a01b0319831681179093556040519116919082907f8be0079c531659141344cd1fd0a4f28419497f9722a3daafe3b4186f6b6457e090600090a35050565b6000602082840312156200014e57600080fd5b81516001600160a01b03811681146200016657600080fd5b9392505050565b634e487b7160e01b600052604160045260246000fd5b600181811c908216806200019857607f821691505b602082108103620001b957634e487b7160e01b600052602260045260246000fd5b50919050565b601f8211156200020d57600081815260208120601f850160051c81016020861015620001e85750805b601f850160051c820191505b818110156200020957828155600101620001f4565b5050505b505050565b81516001600160401b038111156200022e576200022e6200016d565b62000246816200023f845462000183565b84620001bf565b602080601f8311600181146200027e5760008415620002655750858301515b600019600386901b1c1916600185901b17855562000209565b600085815260208120601f198616915b82811015620002af578886015182559484019460019091019084016200028e565b5085821015620002ce5787850151600019600388901b60f8161c191681555b5050505050600190811b01905550565b612b0580620002ee6000396000f3fe608060405234801561001057600080fd5b50600436106101f05760003560e01c80638addc0511161010f578063bdf919f1116100a2578063d7bf18b211610071578063d7bf18b2146104a1578063e985e9c5146104b4578063eab03440146104c7578063f2fde38b146104da57600080fd5b8063bdf919f11461044a578063c87b56dd14610473578063caa0f92a14610486578063cfcc4e221461048e57600080fd5b80639e4e6634116100de5780639e4e6634146103f1578063a22cb46514610404578063af56203714610417578063b88d4fde1461043757600080fd5b80638addc051146103975780638da5cb5b146103c5578063923ad4df146103d657806395d89b41146103e957600080fd5b80636352211e11610187578063715018a611610156578063715018a61461033557806372544f901461033d5780637acc0b20146103505780638ab0eab71461037457600080fd5b80636352211e146102ce5780636813b53b146102e15780636a75323f1461030157806370a082311461031457600080fd5b806317d4a491116101c357806317d4a4911461027257806323b872dd1461029557806342842e0e146102a85780634638c117146102bb57600080fd5b806301ffc9a7146101f557806306fdde031461021d578063081812fc14610232578063095ea7b31461025d575b600080fd5b61020861020336600461236d565b6104ed565b60405190151581526020015b60405180910390f35b6102256104fe565b60405161021491906123da565b6102456102403660046123ed565b610590565b6040516001600160a01b039091168152602001610214565b61027061026b366004612422565b6105b9565b005b61020861028036600461244c565b60096020526000908152604090205460ff1681565b6102706102a3366004612467565b6105c8565b6102706102b6366004612467565b610658565b6102706102c93660046123ed565b610678565b6102456102dc3660046123ed565b61070b565b6102f46102ef3660046123ed565b610716565b60405161021491906124a3565b61027061030f36600461244c565b6108f7565b61032761032236600461244c565b6109d1565b604051908152602001610214565b610270610a19565b61022561034b36600461244c565b610a2d565b61036361035e3660046123ed565b610ad9565b604051610214959493929190612515565b6103876103823660046123ed565b610c2a565b6040516102149493929190612563565b6102086103a536600461264d565b8051602081830181018051600b8252928201919093012091525460ff1681565b6007546001600160a01b0316610245565b6103276103e4366004612682565b610f45565b6102256112c6565b6102706103ff36600461271b565b6112d5565b610270610412366004612769565b61146a565b61032761042536600461244c565b600d6020526000908152604090205481565b6102706104453660046127a5565b611475565b61032761045836600461244c565b6001600160a01b03166000908152600d602052604090205490565b6102256104813660046123ed565b61148d565b600854610327565b61022561049c36600461244c565b611498565b6102706104af3660046123ed565b611532565b6102086104c2366004612801565b6115c5565b6102086104d536600461264d565b6115f3565b6102706104e836600461244c565b61161e565b60006104f88261165c565b92915050565b60606000805461050d90612834565b80601f016020809104026020016040519081016040528092919081815260200182805461053990612834565b80156105865780601f1061055b57610100808354040283529160200191610586565b820191906000526020600020905b81548152906001019060200180831161056957829003601f168201915b5050505050905090565b600061059b82611681565b506000828152600460205260409020546001600160a01b03166104f8565b6105c48282336116b9565b5050565b6001600160a01b0382166105f757604051633250574960e11b8152600060048201526024015b60405180910390fd5b60006106048383336116c6565b9050836001600160a01b0316816001600160a01b031614610652576040516364283d7b60e01b81526001600160a01b03808616600483015260248201849052821660448201526064016105ee565b50505050565b61067383838360405180602001604052806000815250611475565b505050565b610680611753565b600061068b82611780565b6001600160a01b0316036106b15760405162461bcd60e51b81526004016105ee9061286e565b6000818152600a60209081526040808320600401805460ff191690558051928352339183019190915282917fe4249db6cf389874fbc59e44257ba1a19d71794fb56324ebe6166c14c447cf3891015b60405180910390a250565b60006104f882611681565b6107536040518060a001604052806060815260200160006001600160a01b0316815260200160608152602001600081526020016000151581525090565b600061075e83611780565b6001600160a01b0316036107845760405162461bcd60e51b81526004016105ee9061286e565b6000828152600a602052604090819020815160a081019092528054829082906107ac90612834565b80601f01602080910402602001604051908101604052809291908181526020018280546107d890612834565b80156108255780601f106107fa57610100808354040283529160200191610825565b820191906000526020600020905b81548152906001019060200180831161080857829003601f168201915b505050918352505060018201546001600160a01b0316602082015260028201805460409092019161085590612834565b80601f016020809104026020016040519081016040528092919081815260200182805461088190612834565b80156108ce5780601f106108a3576101008083540402835291602001916108ce565b820191906000526020600020905b8154815290600101906020018083116108b157829003601f168201915b50505091835250506003820154602082015260049091015460ff16151560409091015292915050565b6108ff611753565b6001600160a01b03811660009081526009602052604090205460ff166109675760405162461bcd60e51b815260206004820152601b60248201527f4d616e756661637475726572206e6f742072656769737465726564000000000060448201526064016105ee565b6001600160a01b0381166000908152600960209081526040808320805460ff19169055600c909152812061099a91612309565b6040516001600160a01b038216907f2fed5abf6a80d6dfe30b4895481b2fc5d7dce5f8f7b931832f4a2947d5040c7f90600090a250565b60006001600160a01b0382166109fd576040516322718ad960e21b8152600060048201526024016105ee565b506001600160a01b031660009081526003602052604090205490565b610a21611753565b610a2b600061179b565b565b6001600160a01b0381166000908152600c60205260409020805460609190610a5490612834565b80601f0160208091040260200160405190810160405280929190818152602001828054610a8090612834565b8015610acd5780601f10610aa257610100808354040283529160200191610acd565b820191906000526020600020905b815481529060010190602001808311610ab057829003601f168201915b50505050509050919050565b600a60205260009081526040902080548190610af490612834565b80601f0160208091040260200160405190810160405280929190818152602001828054610b2090612834565b8015610b6d5780601f10610b4257610100808354040283529160200191610b6d565b820191906000526020600020905b815481529060010190602001808311610b5057829003601f168201915b505050600184015460028501805494956001600160a01b03909216949193509150610b9790612834565b80601f0160208091040260200160405190810160405280929190818152602001828054610bc390612834565b8015610c105780601f10610be557610100808354040283529160200191610c10565b820191906000526020600020905b815481529060010190602001808311610bf357829003601f168201915b50505050600383015460049093015491929160ff16905085565b60006060818181610c3a86611780565b6001600160a01b031603610c605760405162461bcd60e51b81526004016105ee9061286e565b6000858152600a6020526040808220815160a08101909252805482908290610c8790612834565b80601f0160208091040260200160405190810160405280929190818152602001828054610cb390612834565b8015610d005780601f10610cd557610100808354040283529160200191610d00565b820191906000526020600020905b815481529060010190602001808311610ce357829003601f168201915b505050918352505060018201546001600160a01b03166020820152600282018054604090920191610d3090612834565b80601f0160208091040260200160405190810160405280929190818152602001828054610d5c90612834565b8015610da95780601f10610d7e57610100808354040283529160200191610da9565b820191906000526020600020905b815481529060010190602001808311610d8c57829003601f168201915b50505091835250506003820154602082015260049091015460ff1615156040909101528051909150600090610deb90610de18961148d565b84602001516117ed565b7f19457468657265756d205369676e6564204d6573736167653a0a3332000000006000908152601c829052603c8120919250506000610e2e828560400151611823565b905083602001516001600160a01b0316816001600160a01b0316148015610e7257506020808501516001600160a01b031660009081526009909152604090205460ff165b8015610e7f575083608001515b84516020808701516001600160a01b0381166000908152600c90925260409091208054939b508b938190610eb290612834565b80601f0160208091040260200160405190810160405280929190818152602001828054610ede90612834565b8015610f2b5780601f10610f0057610100808354040283529160200191610f2b565b820191906000526020600020905b815481529060010190602001808311610f0e57829003601f168201915b505050505090509750975097509750505050509193509193565b3360009081526009602052604081205460ff16610fa45760405162461bcd60e51b815260206004820152601d60248201527f4e6f7420612072656769737465726564206d616e75666163747572657200000060448201526064016105ee565b6001600160a01b038516610ffa5760405162461bcd60e51b815260206004820152601b60248201527f43616e6e6f74206d696e7420746f207a65726f2061646472657373000000000060448201526064016105ee565b600084511161104b5760405162461bcd60e51b815260206004820152601a60248201527f50726f647563742049442063616e6e6f7420626520656d70747900000000000060448201526064016105ee565b600083511161109c5760405162461bcd60e51b815260206004820152601c60248201527f4d65746164617461205552492063616e6e6f7420626520656d7074790000000060448201526064016105ee565b600b846040516110ac919061289c565b9081526040519081900360200190205460ff161561110c5760405162461bcd60e51b815260206004820152601960248201527f50726f6475637420494420616c7265616479206578697374730000000000000060448201526064016105ee565b6111188484338561184d565b6111585760405162461bcd60e51b8152602060048201526011602482015270496e76616c6964207369676e617475726560781b60448201526064016105ee565b6008805460009182611169836128b8565b9190505590506001600b86604051611181919061289c565b9081526040805160209281900383018120805460ff19169415159490941790935560a0830181528783523382840152828101869052426060840152600160808401526000848152600a9092529020815181906111dd9082612925565b5060208201516001820180546001600160a01b0319166001600160a01b03909216919091179055604082015160028201906112189082612925565b50606082015160038201556080909101516004909101805460ff1916911515919091179055336000908152600d60205260408120805491611258836128b8565b919050555061126786826118b3565b6112718185611918565b856001600160a01b031681336001600160a01b03167f04a9562c207506f00039544bd22c252c285e76dd1e5367d66e9dda58f7a5a146886040516112b591906123da565b60405180910390a495945050505050565b60606001805461050d90612834565b6112dd611753565b6001600160a01b0382166113335760405162461bcd60e51b815260206004820152601c60248201527f496e76616c6964206d616e75666163747572657220616464726573730000000060448201526064016105ee565b60008151116113845760405162461bcd60e51b815260206004820152601a60248201527f4272616e64206e616d652063616e6e6f7420626520656d70747900000000000060448201526064016105ee565b6001600160a01b03821660009081526009602052604090205460ff16156113ed5760405162461bcd60e51b815260206004820152601f60248201527f4d616e75666163747572657220616c726561647920726567697374657265640060448201526064016105ee565b6001600160a01b0382166000908152600960209081526040808320805460ff19166001179055600c90915290206114248282612925565b50816001600160a01b03167f3980e1c29ecf2bdfce4e2793ed6efcc338cb00238d58c95de9000480acc0caef8260405161145e91906123da565b60405180910390a25050565b6105c4338383611968565b6114808484846105c8565b6106523385858585611a07565b60606104f882611b32565b600c60205260009081526040902080546114b190612834565b80601f01602080910402602001604051908101604052809291908181526020018280546114dd90612834565b801561152a5780601f106114ff5761010080835404028352916020019161152a565b820191906000526020600020905b81548152906001019060200180831161150d57829003601f168201915b505050505081565b61153a611753565b600061154582611780565b6001600160a01b03160361156b5760405162461bcd60e51b81526004016105ee9061286e565b6000818152600a6020908152604091829020600401805460ff191660019081179091558251908152339181019190915282917fe4249db6cf389874fbc59e44257ba1a19d71794fb56324ebe6166c14c447cf389101610700565b6001600160a01b03918216600090815260056020908152604080832093909416825291909152205460ff1690565b6000600b82604051611605919061289c565b9081526040519081900360200190205460ff1692915050565b611626611753565b6001600160a01b03811661165057604051631e4fbdf760e01b8152600060048201526024016105ee565b6116598161179b565b50565b60006001600160e01b03198216632483248360e11b14806104f857506104f882611c43565b60008061168d83611780565b90506001600160a01b0381166104f857604051637e27328960e01b8152600481018490526024016105ee565b6106738383836001611c93565b6000806116d284611780565b905060006116e1868686611d99565b90506001600160a01b0382161580159061170357506001600160a01b03861615155b1561174a57856001600160a01b0316826001600160a01b0316867fcef86d37ba3dc1d682967cde44d8050488734bf53166725b220b4d2e515e9e9360405160405180910390a45b95945050505050565b6007546001600160a01b03163314610a2b5760405163118cdaa760e01b81523360048201526024016105ee565b6000908152600260205260409020546001600160a01b031690565b600780546001600160a01b038381166001600160a01b0319831681179093556040519116919082907f8be0079c531659141344cd1fd0a4f28419497f9722a3daafe3b4186f6b6457e090600090a35050565b6000838383604051602001611804939291906129e5565b6040516020818303038152906040528051906020012090509392505050565b6000806000806118338686611e8d565b9250925092506118438282611eda565b5090949350505050565b60008061185b8686866117ed565b7f19457468657265756d205369676e6564204d6573736167653a0a3332000000006000908152601c829052603c81209192506118978286611823565b6001600160a01b03908116908716149350505050949350505050565b6001600160a01b0382166118dd57604051633250574960e11b8152600060048201526024016105ee565b60006118eb838360006116c6565b90506001600160a01b03811615610673576040516339e3563760e11b8152600060048201526024016105ee565b60008281526006602052604090206119308282612925565b506040518281527ff8e1a15aba9398e019f0b49df1a4fde98ee17ae345cb5f6b5e2c27f5033e8ce79060200160405180910390a15050565b6001600160a01b03821661199a57604051630b61174360e31b81526001600160a01b03831660048201526024016105ee565b6001600160a01b03838116600081815260056020908152604080832094871680845294825291829020805460ff191686151590811790915591519182527f17307eab39ab6107e8899845ad3d59bd9653f200f220920489ca2b5937696c31910160405180910390a3505050565b6001600160a01b0383163b15611b2b57604051630a85bd0160e11b81526001600160a01b0384169063150b7a0290611a49908890889087908790600401612a30565b6020604051808303816000875af1925050508015611a84575060408051601f3d908101601f19168201909252611a8191810190612a6d565b60015b611aed573d808015611ab2576040519150601f19603f3d011682016040523d82523d6000602084013e611ab7565b606091505b508051600003611ae557604051633250574960e11b81526001600160a01b03851660048201526024016105ee565b805160208201fd5b6001600160e01b03198116630a85bd0160e11b14611b2957604051633250574960e11b81526001600160a01b03851660048201526024016105ee565b505b5050505050565b6060611b3d82611681565b5060008281526006602052604081208054611b5790612834565b80601f0160208091040260200160405190810160405280929190818152602001828054611b8390612834565b8015611bd05780601f10611ba557610100808354040283529160200191611bd0565b820191906000526020600020905b815481529060010190602001808311611bb357829003601f168201915b505050505090506000611bee60408051602081019091526000815290565b90508051600003611c00575092915050565b815115611c32578082604051602001611c1a929190612a8a565b60405160208183030381529060405292505050919050565b611c3b84611f93565b949350505050565b60006001600160e01b031982166380ac58cd60e01b1480611c7457506001600160e01b03198216635b5e139f60e01b145b806104f857506301ffc9a760e01b6001600160e01b03198316146104f8565b8080611ca757506001600160a01b03821615155b15611d69576000611cb784611681565b90506001600160a01b03831615801590611ce35750826001600160a01b0316816001600160a01b031614155b8015611cf65750611cf481846115c5565b155b15611d1f5760405163a9fbf51f60e01b81526001600160a01b03841660048201526024016105ee565b8115611d675783856001600160a01b0316826001600160a01b03167f8c5be1e5ebec7d5bd14f71427d1e84f3dd0314c0f7b2291e5b200ac8c7c3b92560405160405180910390a45b505b5050600090815260046020526040902080546001600160a01b0319166001600160a01b0392909216919091179055565b600080611da584611780565b90506001600160a01b03831615611dc157611dc1818486612008565b6001600160a01b03811615611dff57611dde600085600080611c93565b6001600160a01b038116600090815260036020526040902080546000190190555b6001600160a01b03851615611e2e576001600160a01b0385166000908152600360205260409020805460010190555b60008481526002602052604080822080546001600160a01b0319166001600160a01b0389811691821790925591518793918516917fddf252ad1be2c89b69c2b068fc378daa952ba7f163c4a11628f55a4df523b3ef91a4949350505050565b60008060008351604103611ec75760208401516040850151606086015160001a611eb98882858561206c565b955095509550505050611ed3565b50508151600091506002905b9250925092565b6000826003811115611eee57611eee612ab9565b03611ef7575050565b6001826003811115611f0b57611f0b612ab9565b03611f295760405163f645eedf60e01b815260040160405180910390fd5b6002826003811115611f3d57611f3d612ab9565b03611f5e5760405163fce698f760e01b8152600481018290526024016105ee565b6003826003811115611f7257611f72612ab9565b036105c4576040516335e2f38360e21b8152600481018290526024016105ee565b6060611f9e82611681565b506000611fb660408051602081019091526000815290565b90506000815111611fd65760405180602001604052806000815250612001565b80611fe08461213b565b604051602001611ff1929190612a8a565b6040516020818303038152906040525b9392505050565b6120138383836121ce565b610673576001600160a01b03831661204157604051637e27328960e01b8152600481018290526024016105ee565b60405163177e802f60e01b81526001600160a01b0383166004820152602481018290526044016105ee565b600080807f7fffffffffffffffffffffffffffffff5d576e7357a4501ddfe92f46681b20a08411156120a75750600091506003905082612131565b604080516000808252602082018084528a905260ff891692820192909252606081018790526080810186905260019060a0016020604051602081039080840390855afa1580156120fb573d6000803e3d6000fd5b5050604051601f1901519150506001600160a01b03811661212757506000925060019150829050612131565b9250600091508190505b9450945094915050565b6060600061214883612231565b600101905060008167ffffffffffffffff811115612168576121686125aa565b6040519080825280601f01601f191660200182016040528015612192576020820181803683370190505b5090508181016020015b600019016f181899199a1a9b1b9c1cb0b131b232b360811b600a86061a8153600a850494508461219c57509392505050565b60006001600160a01b03831615801590611c3b5750826001600160a01b0316846001600160a01b03161480612208575061220884846115c5565b80611c3b5750506000908152600460205260409020546001600160a01b03908116911614919050565b60008072184f03e93ff9f4daa797ed6e38ed64bf6a1f0160401b83106122705772184f03e93ff9f4daa797ed6e38ed64bf6a1f0160401b830492506040015b6d04ee2d6d415b85acef8100000000831061229c576d04ee2d6d415b85acef8100000000830492506020015b662386f26fc1000083106122ba57662386f26fc10000830492506010015b6305f5e10083106122d2576305f5e100830492506008015b61271083106122e657612710830492506004015b606483106122f8576064830492506002015b600a83106104f85760010192915050565b50805461231590612834565b6000825580601f10612325575050565b601f01602090049060005260206000209081019061165991905b80821115612353576000815560010161233f565b5090565b6001600160e01b03198116811461165957600080fd5b60006020828403121561237f57600080fd5b813561200181612357565b60005b838110156123a557818101518382015260200161238d565b50506000910152565b600081518084526123c681602086016020860161238a565b601f01601f19169290920160200192915050565b60208152600061200160208301846123ae565b6000602082840312156123ff57600080fd5b5035919050565b80356001600160a01b038116811461241d57600080fd5b919050565b6000806040838503121561243557600080fd5b61243e83612406565b946020939093013593505050565b60006020828403121561245e57600080fd5b61200182612406565b60008060006060848603121561247c57600080fd5b61248584612406565b925061249360208501612406565b9150604084013590509250925092565b602081526000825160a060208401526124bf60c08401826123ae565b60208501516001600160a01b0316604085810191909152850151848203601f190160608601529091506124f282826123ae565b915050606084015160808401526080840151151560a08401528091505092915050565b60a08152600061252860a08301886123ae565b6001600160a01b0387166020840152828103604084015261254981876123ae565b606084019590955250509015156080909101529392505050565b841515815260806020820152600061257e60808301866123ae565b6001600160a01b0385166040840152828103606084015261259f81856123ae565b979650505050505050565b634e487b7160e01b600052604160045260246000fd5b600082601f8301126125d157600080fd5b813567ffffffffffffffff808211156125ec576125ec6125aa565b604051601f8301601f19908116603f01168101908282118183101715612614576126146125aa565b8160405283815286602085880101111561262d57600080fd5b836020870160208301376000602085830101528094505050505092915050565b60006020828403121561265f57600080fd5b813567ffffffffffffffff81111561267657600080fd5b611c3b848285016125c0565b6000806000806080858703121561269857600080fd5b6126a185612406565b9350602085013567ffffffffffffffff808211156126be57600080fd5b6126ca888389016125c0565b945060408701359150808211156126e057600080fd5b6126ec888389016125c0565b9350606087013591508082111561270257600080fd5b5061270f878288016125c0565b91505092959194509250565b6000806040838503121561272e57600080fd5b61273783612406565b9150602083013567ffffffffffffffff81111561275357600080fd5b61275f858286016125c0565b9150509250929050565b6000806040838503121561277c57600080fd5b61278583612406565b91506020830135801515811461279a57600080fd5b809150509250929050565b600080600080608085870312156127bb57600080fd5b6127c485612406565b93506127d260208601612406565b925060408501359150606085013567ffffffffffffffff8111156127f557600080fd5b61270f878288016125c0565b6000806040838503121561281457600080fd5b61281d83612406565b915061282b60208401612406565b90509250929050565b600181811c9082168061284857607f821691505b60208210810361286857634e487b7160e01b600052602260045260246000fd5b50919050565b602080825260149082015273151bdad95b88191bd95cc81b9bdd08195e1a5cdd60621b604082015260600190565b600082516128ae81846020870161238a565b9190910192915050565b6000600182016128d857634e487b7160e01b600052601160045260246000fd5b5060010190565b601f82111561067357600081815260208120601f850160051c810160208610156129065750805b601f850160051c820191505b81811015611b2957828155600101612912565b815167ffffffffffffffff81111561293f5761293f6125aa565b6129538161294d8454612834565b846128df565b602080601f83116001811461298857600084156129705750858301515b600019600386901b1c1916600185901b178555611b29565b600085815260208120601f198616915b828110156129b757888601518255948401946001909101908401612998565b50858210156129d55787850151600019600388901b60f8161c191681555b5050505050600190811b01905550565b600084516129f781846020890161238a565b845190830190612a0b81836020890161238a565b60609490941b6bffffffffffffffffffffffff19169301928352505060140192915050565b6001600160a01b0385811682528416602082015260408101839052608060608201819052600090612a63908301846123ae565b9695505050505050565b600060208284031215612a7f57600080fd5b815161200181612357565b60008351612a9c81846020880161238a565b835190830190612ab081836020880161238a565b01949350505050565b634e487b7160e01b600052602160045260246000fdfea2646970667358221220805a10379d1a9f9fb5646cca208471f11b2c496f28267752e2f589d9c8d75b3064736f6c63430008140033","opcodes":"PUSH1 0x80 PUSH1 0x40 MSTORE PUSH1 0x1 PUSH1 0x8 SSTORE CALLVALUE DUP1 ISZERO PUSH3 0x16 JUMPI PUSH1 0x0 DUP1 REVERT JUMPDEST POP PUSH1 0x40 MLOAD PUSH3 0x2DF3 CODESIZE SUB DUP1 PUSH3 0x2DF3 DUP4 CODECOPY DUP2 ADD PUSH1 0x40 DUP2 SWAP1 MSTORE PUSH3 0x39 SWAP2 PUSH3 0x13B JUMP JUMPDEST DUP1 PUSH1 0x40 MLOAD DUP1 PUSH1 0x40 ADD PUSH1 0x40 MSTORE DUP1 PUSH1 0x12 DUP2 MSTORE PUSH1 0x20 ADD PUSH18 0x131D5E131A5B9AC8131D5E1D5C9E48139195 PUSH1 0x72 SHL DUP2 MSTORE POP PUSH1 0x40 MLOAD DUP1 PUSH1 0x40 ADD PUSH1 0x40 MSTORE DUP1 PUSH1 0x6 DUP2 MSTORE PUSH1 0x20 ADD PUSH6 0x131556139195 PUSH1 0xD2 SHL DUP2 MSTORE POP DUP2 PUSH1 0x0 SWAP1 DUP2 PUSH3 0x95 SWAP2 SWAP1 PUSH3 0x212 JUMP JUMPDEST POP PUSH1 0x1 PUSH3 0xA4 DUP3 DUP3 PUSH3 0x212 JUMP JUMPDEST POP POP POP PUSH1 0x1 PUSH1 0x1 PUSH1 0xA0 SHL SUB DUP2 AND PUSH3 0xD6 JUMPI PUSH1 0x40 MLOAD PUSH4 0x1E4FBDF7 PUSH1 0xE0 SHL DUP2 MSTORE PUSH1 0x0 PUSH1 0x4 DUP3 ADD MSTORE PUSH1 0x24 ADD PUSH1 0x40 MLOAD DUP1 SWAP2 SUB SWAP1 REVERT JUMPDEST PUSH3 0xE1 DUP2 PUSH3 0xE9 JUMP JUMPDEST POP POP PUSH3 0x2DE JUMP JUMPDEST PUSH1 0x7 DUP1 SLOAD PUSH1 0x1 PUSH1 0x1 PUSH1 0xA0 SHL SUB DUP4 DUP2 AND PUSH1 0x1 PUSH1 0x1 PUSH1 0xA0 SHL SUB NOT DUP4 AND DUP2 OR SWAP1 SWAP4 SSTORE PUSH1 0x40 MLOAD SWAP2 AND SWAP2 SWAP1 DUP3 SWAP1 PUSH32 0x8BE0079C531659141344CD1FD0A4F28419497F9722A3DAAFE3B4186F6B6457E0 SWAP1 PUSH1 0x0 SWAP1 LOG3 POP POP JUMP JUMPDEST PUSH1 0x0 PUSH1 0x20 DUP3 DUP5 SUB SLT ISZERO PUSH3 0x14E JUMPI PUSH1 0x0 DUP1 REVERT JUMPDEST DUP2 MLOAD PUSH1 0x1 PUSH1 0x1 PUSH1 0xA0 SHL SUB DUP2 AND DUP2 EQ PUSH3 0x166 JUMPI PUSH1 0x0 DUP1 REVERT JUMPDEST SWAP4 SWAP3 POP POP POP JUMP JUMPDEST PUSH4 0x4E487B71 PUSH1 0xE0 SHL PUSH1 0x0 MSTORE PUSH1 0x41 PUSH1 0x4 MSTORE PUSH1 0x24 PUSH1 0x0 REVERT JUMPDEST PUSH1 0x1 DUP2 DUP2 SHR SWAP1 DUP3 AND DUP1 PUSH3 0x198 JUMPI PUSH1 0x7F DUP3 AND SWAP2 POP JUMPDEST PUSH1 0x20 DUP3 LT DUP2 SUB PUSH3 0x1B9 JUMPI PUSH4 0x4E487B71 PUSH1 0xE0 SHL PUSH1 0x0 MSTORE PUSH1 0x22 PUSH1 0x4 MSTORE PUSH1 0x24 PUSH1 0x0 REVERT JUMPDEST POP SWAP2 SWAP1 POP JUMP JUMPDEST PUSH1 0x1F DUP3 GT ISZERO PUSH3 0x20D JUMPI PUSH1 0x0 DUP2 DUP2 MSTORE PUSH1 0x20 DUP2 KECCAK256 PUSH1 0x1F DUP6 ADD PUSH1 0x5 SHR DUP2 ADD PUSH1 0x20 DUP7 LT ISZERO PUSH3 0x1E8 JUMPI POP DUP1 JUMPDEST PUSH1 0x1F DUP6 ADD PUSH1 0x5 SHR DUP3 ADD SWAP2 POP JUMPDEST DUP2 DUP2 LT ISZERO PUSH3 0x209 JUMPI DUP3 DUP2 SSTORE PUSH1 0x1 ADD PUSH3 0x1F4 JUMP JUMPDEST POP POP POP JUMPDEST POP POP POP JUMP JUMPDEST DUP2 MLOAD PUSH1 0x1 PUSH1 0x1 PUSH1 0x40 SHL SUB DUP2 GT ISZERO PUSH3 0x22E JUMPI PUSH3 0x22E PUSH3 0x16D JUMP JUMPDEST PUSH3 0x246 DUP2 PUSH3 0x23F DUP5 SLOAD PUSH3 0x183 JUMP JUMPDEST DUP5 PUSH3 0x1BF JUMP JUMPDEST PUSH1 0x20 DUP1 PUSH1 0x1F DUP4 GT PUSH1 0x1 DUP2 EQ PUSH3 0x27E JUMPI PUSH1 0x0 DUP5 ISZERO PUSH3 0x265 JUMPI POP DUP6 DUP4 ADD MLOAD JUMPDEST PUSH1 0x0 NOT PUSH1 0x3 DUP7 SWAP1 SHL SHR NOT AND PUSH1 0x1 DUP6 SWAP1 SHL OR DUP6 SSTORE PUSH3 0x209 JUMP JUMPDEST PUSH1 0x0 DUP6 DUP2 MSTORE PUSH1 0x20 DUP2 KECCAK256 PUSH1 0x1F NOT DUP7 AND SWAP2 JUMPDEST DUP3 DUP2 LT ISZERO PUSH3 0x2AF JUMPI DUP9 DUP7 ADD MLOAD DUP3 SSTORE SWAP5 DUP5 ADD SWAP5 PUSH1 0x1 SWAP1 SWAP2 ADD SWAP1 DUP5 ADD PUSH3 0x28E JUMP JUMPDEST POP DUP6 DUP3 LT ISZERO PUSH3 0x2CE JUMPI DUP8 DUP6 ADD MLOAD PUSH1 0x0 NOT PUSH1 0x3 DUP9 SWAP1 SHL PUSH1 0xF8 AND SHR NOT AND DUP2 SSTORE JUMPDEST POP POP POP POP POP PUSH1 0x1 SWAP1 DUP2 SHL ADD SWAP1 SSTORE POP JUMP JUMPDEST PUSH2 0x2B05 DUP1 PUSH3 0x2EE PUSH1 0x0 CODECOPY PUSH1 0x0 RETURN INVALID PUSH1 0x80 PUSH1 0x40 MSTORE CALLVALUE DUP1 ISZERO PUSH2 0x10 JUMPI PUSH1 0x0 DUP1 REVERT JUMPDEST POP PUSH1 0x4 CALLDATASIZE LT PUSH2 0x1F0 JUMPI PUSH1 0x0 CALLDATALOAD PUSH1 0xE0 SHR DUP1 PUSH4 0x8ADDC051 GT PUSH2 0x10F JUMPI DUP1 PUSH4 0xBDF919F1 GT PUSH2 0xA2 JUMPI DUP1 PUSH4 0xD7BF18B2 GT PUSH2 0x71 JUMPI DUP1 PUSH4 0xD7BF18B2 EQ PUSH2 0x4A1 JUMPI DUP1 PUSH4 0xE985E9C5 EQ PUSH2 0x4B4 JUMPI DUP1 PUSH4 0xEAB03440 EQ PUSH2 0x4C7 JUMPI DUP1 PUSH4 0xF2FDE38B EQ PUSH2 0x4DA JUMPI PUSH1 0x0 DUP1 REVERT JUMPDEST DUP1 PUSH4 0xBDF919F1 EQ PUSH2 0x44A JUMPI DUP1 PUSH4 0xC87B56DD EQ PUSH2 0x473 JUMPI DUP1 PUSH4 0xCAA0F92A EQ PUSH2 0x486 JUMPI DUP1 PUSH4 0xCFCC4E22 EQ PUSH2 0x48E JUMPI PUSH1 0x0 DUP1 REVERT JUMPDEST DUP1 PUSH4 0x9E4E6634 GT PUSH2 0xDE JUMPI DUP1 PUSH4 0x9E4E6634 EQ PUSH2 0x3F1 JUMPI DUP1 PUSH4 0xA22CB465 EQ PUSH2 0x404 JUMPI DUP1 PUSH4 0xAF562037 EQ PUSH2 0x417 JUMPI DUP1 PUSH4 0xB88D4FDE EQ PUSH2 0x437 JUMPI PUSH1 0x0 DUP1 REVERT JUMPDEST DUP1 PUSH4 0x8ADDC051 EQ PUSH2 0x397 JUMPI DUP1 PUSH4 0x8DA5CB5B EQ PUSH2 0x3C5 JUMPI DUP1 PUSH4 0x923AD4DF EQ PUSH2 0x3D6 JUMPI DUP1 PUSH4 0x95D89B41 EQ PUSH2 0x3E9 JUMPI PUSH1 0x0 DUP1 REVERT JUMPDEST DUP1 PUSH4 0x6352211E GT PUSH2 0x187 JUMPI DUP1 PUSH4 0x715018A6 GT PUSH2 0x156 JUMPI DUP1 PUSH4 0x715018A6 EQ PUSH2 0x335 JUMPI DUP1 PUSH4 0x72544F90 EQ PUSH2 0x33D JUMPI DUP1 PUSH4 0x7ACC0B20 EQ PUSH2 0x350 JUMPI DUP1 PUSH4 0x8AB0EAB7 EQ PUSH2 0x374 JUMPI PUSH1 0x0 DUP1 REVERT JUMPDEST DUP1 PUSH4 0x6352211E EQ PUSH2 0x2CE JUMPI DUP1 PUSH4 0x6813B53B EQ PUSH2 0x2E1 JUMPI DUP1 PUSH4 0x6A75323F EQ PUSH2 0x301 JUMPI DUP1 PUSH4 0x70A08231 EQ PUSH2 0x314 JUMPI PUSH1 0x0 DUP1 REVERT JUMPDEST DUP1 PUSH4 0x17D4A491 GT PUSH2 0x1C3 JUMPI DUP1 PUSH4 0x17D4A491 EQ PUSH2 0x272 JUMPI DUP1 PUSH4 0x23B872DD EQ PUSH2 0x295 JUMPI DUP1 PUSH4 0x42842E0E EQ PUSH2 0x2A8 JUMPI DUP1 PUSH4 0x4638C117 EQ PUSH2 0x2BB JUMPI PUSH1 0x0 DUP1 REVERT JUMPDEST DUP1 PUSH4 0x1FFC9A7 EQ PUSH2 0x1F5 JUMPI DUP1 PUSH4 0x6FDDE03 EQ PUSH2 0x21D JUMPI DUP1 PUSH4 0x81812FC EQ PUSH2 0x232 JUMPI DUP1 PUSH4 0x95EA7B3 EQ PUSH2 0x25D JUMPI JUMPDEST PUSH1 0x0 DUP1 REVERT JUMPDEST PUSH2 0x208 PUSH2 0x203 CALLDATASIZE PUSH1 0x4 PUSH2 0x236D JUMP JUMPDEST PUSH2 0x4ED JUMP JUMPDEST PUSH1 0x40 MLOAD SWAP1 ISZERO ISZERO DUP2 MSTORE PUSH1 0x20 ADD JUMPDEST PUSH1 0x40 MLOAD DUP1 SWAP2 SUB SWAP1 RETURN JUMPDEST PUSH2 0x225 PUSH2 0x4FE JUMP JUMPDEST PUSH1 0x40 MLOAD PUSH2 0x214 SWAP2 SWAP1 PUSH2 0x23DA JUMP JUMPDEST PUSH2 0x245 PUSH2 0x240 CALLDATASIZE PUSH1 0x4 PUSH2 0x23ED JUMP JUMPDEST PUSH2 0x590 JUMP JUMPDEST PUSH1 0x40 MLOAD PUSH1 0x1 PUSH1 0x1 PUSH1 0xA0 SHL SUB SWAP1 SWAP2 AND DUP2 MSTORE PUSH1 0x20 ADD PUSH2 0x214 JUMP JUMPDEST PUSH2 0x270 PUSH2 0x26B CALLDATASIZE PUSH1 0x4 PUSH2 0x2422 JUMP JUMPDEST PUSH2 0x5B9 JUMP JUMPDEST STOP JUMPDEST PUSH2 0x208 PUSH2 0x280 CALLDATASIZE PUSH1 0x4 PUSH2 0x244C JUMP JUMPDEST PUSH1 0x9 PUSH1 0x20 MSTORE PUSH1 0x0 SWAP1 DUP2 MSTORE PUSH1 0x40 SWAP1 KECCAK256 SLOAD PUSH1 0xFF AND DUP2 JUMP JUMPDEST PUSH2 0x270 PUSH2 0x2A3 CALLDATASIZE PUSH1 0x4 PUSH2 0x2467 JUMP JUMPDEST PUSH2 0x5C8 JUMP JUMPDEST PUSH2 0x270 PUSH2 0x2B6 CALLDATASIZE PUSH1 0x4 PUSH2 0x2467 JUMP JUMPDEST PUSH2 0x658 JUMP JUMPDEST PUSH2 0x270 PUSH2 0x2C9 CALLDATASIZE PUSH1 0x4 PUSH2 0x23ED JUMP JUMPDEST PUSH2 0x678 JUMP JUMPDEST PUSH2 0x245 PUSH2 0x2DC CALLDATASIZE PUSH1 0x4 PUSH2 0x23ED JUMP JUMPDEST PUSH2 0x70B JUMP JUMPDEST PUSH2 0x2F4 PUSH2 0x2EF CALLDATASIZE PUSH1 0x4 PUSH2 0x23ED JUMP JUMPDEST PUSH2 0x716 JUMP JUMPDEST PUSH1 0x40 MLOAD PUSH2 0x214 SWAP2 SWAP1 PUSH2 0x24A3 JUMP JUMPDEST PUSH2 0x270 PUSH2 0x30F CALLDATASIZE PUSH1 0x4 PUSH2 0x244C JUMP JUMPDEST PUSH2 0x8F7 JUMP JUMPDEST PUSH2 0x327 PUSH2 0x322 CALLDATASIZE PUSH1 0x4 PUSH2 0x244C JUMP JUMPDEST PUSH2 0x9D1 JUMP JUMPDEST PUSH1 0x40 MLOAD SWAP1 DUP2 MSTORE PUSH1 0x20 ADD PUSH2 0x214 JUMP JUMPDEST PUSH2 0x270 PUSH2 0xA19 JUMP JUMPDEST PUSH2 0x225 PUSH2 0x34B CALLDATASIZE PUSH1 0x4 PUSH2 0x244C JUMP JUMPDEST PUSH2 0xA2D JUMP JUMPDEST PUSH2 0x363 PUSH2 0x35E CALLDATASIZE PUSH1 0x4 PUSH2 0x23ED JUMP JUMPDEST PUSH2 0xAD9 JUMP JUMPDEST PUSH1 0x40 MLOAD PUSH2 0x214 SWAP6 SWAP5 SWAP4 SWAP3 SWAP2 SWAP1 PUSH2 0x2515 JUMP JUMPDEST PUSH2 0x387 PUSH2 0x382 CALLDATASIZE PUSH1 0x4 PUSH2 0x23ED JUMP JUMPDEST PUSH2 0xC2A JUMP JUMPDEST PUSH1 0x40 MLOAD PUSH2 0x214 SWAP5 SWAP4 SWAP3 SWAP2 SWAP1 PUSH2 0x2563 JUMP JUMPDEST PUSH2 0x208 PUSH2 0x3A5 CALLDATASIZE PUSH1 0x4 PUSH2 0x264D JUMP JUMPDEST DUP1 MLOAD PUSH1 0x20 DUP2 DUP4 ADD DUP2 ADD DUP1 MLOAD PUSH1 0xB DUP3 MSTORE SWAP3 DUP3 ADD SWAP2 SWAP1 SWAP4 ADD KECCAK256 SWAP2 MSTORE SLOAD PUSH1 0xFF AND DUP2 JUMP JUMPDEST PUSH1 0x7 SLOAD PUSH1 0x1 PUSH1 0x1 PUSH1 0xA0 SHL SUB AND PUSH2 0x245 JUMP JUMPDEST PUSH2 0x327 PUSH2 0x3E4 CALLDATASIZE PUSH1 0x4 PUSH2 0x2682 JUMP JUMPDEST PUSH2 0xF45 JUMP JUMPDEST PUSH2 0x225 PUSH2 0x12C6 JUMP JUMPDEST PUSH2 0x270 PUSH2 0x3FF CALLDATASIZE PUSH1 0x4 PUSH2 0x271B JUMP JUMPDEST PUSH2 0x12D5 JUMP JUMPDEST PUSH2 0x270 PUSH2 0x412 CALLDATASIZE PUSH1 0x4 PUSH2 0x2769 JUMP JUMPDEST PUSH2 0x146A JUMP JUMPDEST PUSH2 0x327 PUSH2 0x425 CALLDATASIZE PUSH1 0x4 PUSH2 0x244C JUMP JUMPDEST PUSH1 0xD PUSH1 0x20 MSTORE PUSH1 0x0 SWAP1 DUP2 MSTORE PUSH1 0x40 SWAP1 KECCAK256 SLOAD DUP2 JUMP JUMPDEST PUSH2 0x270 PUSH2 0x445 CALLDATASIZE PUSH1 0x4 PUSH2 0x27A5 JUMP JUMPDEST PUSH2 0x1475 JUMP JUMPDEST PUSH2 0x327 PUSH2 0x458 CALLDATASIZE PUSH1 0x4 PUSH2 0x244C JUMP JUMPDEST PUSH1 0x1 PUSH1 0x1 PUSH1 0xA0 SHL SUB AND PUSH1 0x0 SWAP1 DUP2 MSTORE PUSH1 0xD PUSH1 0x20 MSTORE PUSH1 0x40 SWAP1 KECCAK256 SLOAD SWAP1 JUMP JUMPDEST PUSH2 0x225 PUSH2 0x481 CALLDATASIZE PUSH1 0x4 PUSH2 0x23ED JUMP JUMPDEST PUSH2 0x148D JUMP JUMPDEST PUSH1 0x8 SLOAD PUSH2 0x327 JUMP JUMPDEST PUSH2 0x225 PUSH2 0x49C CALLDATASIZE PUSH1 0x4 PUSH2 0x244C JUMP JUMPDEST PUSH2 0x1498 JUMP JUMPDEST PUSH2 0x270 PUSH2 0x4AF CALLDATASIZE PUSH1 0x4 PUSH2 0x23ED JUMP JUMPDEST PUSH2 0x1532 JUMP JUMPDEST PUSH2 0x208 PUSH2 0x4C2 CALLDATASIZE PUSH1 0x4 PUSH2 0x2801 JUMP JUMPDEST PUSH2 0x15C5 JUMP JUMPDEST PUSH2 0x208 PUSH2 0x4D5 CALLDATASIZE PUSH1 0x4 PUSH2 0x264D JUMP JUMPDEST PUSH2 0x15F3 JUMP JUMPDEST PUSH2 0x270 PUSH2 0x4E8 CALLDATASIZE PUSH1 0x4 PUSH2 0x244C JUMP JUMPDEST PUSH2 0x161E JUMP JUMPDEST PUSH1 0x0 PUSH2 0x4F8 DUP3 PUSH2 0x165C JUMP JUMPDEST SWAP3 SWAP2 POP POP JUMP JUMPDEST PUSH1 0x60 PUSH1 0x0 DUP1 SLOAD PUSH2 0x50D SWAP1 PUSH2 0x2834 JUMP JUMPDEST DUP1 PUSH1 0x1F ADD PUSH1 0x20 DUP1 SWAP2 DIV MUL PUSH1 0x20 ADD PUSH1 0x40 MLOAD SWAP1 DUP2 ADD PUSH1 0x40 MSTORE DUP1 SWAP3 SWAP2 SWAP1 DUP2 DUP2 MSTORE PUSH1 0x20 ADD DUP3 DUP1 SLOAD PUSH2 0x539 SWAP1 PUSH2 0x2834 JUMP JUMPDEST DUP1 ISZERO PUSH2 0x586 JUMPI DUP1 PUSH1 0x1F LT PUSH2 0x55B JUMPI PUSH2 0x100 DUP1 DUP4 SLOAD DIV MUL DUP4 MSTORE SWAP2 PUSH1 0x20 ADD SWAP2 PUSH2 0x586 JUMP JUMPDEST DUP3 ADD SWAP2 SWAP1 PUSH1 0x0 MSTORE PUSH1 0x20 PUSH1 0x0 KECCAK256 SWAP1 JUMPDEST DUP2 SLOAD DUP2 MSTORE SWAP1 PUSH1 0x1 ADD SWAP1 PUSH1 0x20 ADD DUP1 DUP4 GT PUSH2 0x569 JUMPI DUP3 SWAP1 SUB PUSH1 0x1F AND DUP3 ADD SWAP2 JUMPDEST POP POP POP POP POP SWAP1 POP SWAP1 JUMP JUMPDEST PUSH1 0x0 PUSH2 0x59B DUP3 PUSH2 0x1681 JUMP JUMPDEST POP PUSH1 0x0 DUP3 DUP2 MSTORE PUSH1 0x4 PUSH1 0x20 MSTORE PUSH1 0x40 SWAP1 KECCAK256 SLOAD PUSH1 0x1 PUSH1 0x1 PUSH1 0xA0 SHL SUB AND PUSH2 0x4F8 JUMP JUMPDEST PUSH2 0x5C4 DUP3 DUP3 CALLER PUSH2 0x16B9 JUMP JUMPDEST POP POP JUMP JUMPDEST PUSH1 0x1 PUSH1 0x1 PUSH1 0xA0 SHL SUB DUP3 AND PUSH2 0x5F7 JUMPI PUSH1 0x40 MLOAD PUSH4 0x32505749 PUSH1 0xE1 SHL DUP2 MSTORE PUSH1 0x0 PUSH1 0x4 DUP3 ADD MSTORE PUSH1 0x24 ADD JUMPDEST PUSH1 0x40 MLOAD DUP1 SWAP2 SUB SWAP1 REVERT JUMPDEST PUSH1 0x0 PUSH2 0x604 DUP4 DUP4 CALLER PUSH2 0x16C6 JUMP JUMPDEST SWAP1 POP DUP4 PUSH1 0x1 PUSH1 0x1 PUSH1 0xA0 SHL SUB AND DUP2 PUSH1 0x1 PUSH1 0x1 PUSH1 0xA0 SHL SUB AND EQ PUSH2 0x652 JUMPI PUSH1 0x40 MLOAD PUSH4 0x64283D7B PUSH1 0xE0 SHL DUP2 MSTORE PUSH1 0x1 PUSH1 0x1 PUSH1 0xA0 SHL SUB DUP1 DUP7 AND PUSH1 0x4 DUP4 ADD MSTORE PUSH1 0x24 DUP3 ADD DUP5 SWAP1 MSTORE DUP3 AND PUSH1 0x44 DUP3 ADD MSTORE PUSH1 0x64 ADD PUSH2 0x5EE JUMP JUMPDEST POP POP POP POP JUMP JUMPDEST PUSH2 0x673 DUP4 DUP4 DUP4 PUSH1 0x40 MLOAD DUP1 PUSH1 0x20 ADD PUSH1 0x40 MSTORE DUP1 PUSH1 0x0 DUP2 MSTORE POP PUSH2 0x1475 JUMP JUMPDEST POP POP POP JUMP JUMPDEST PUSH2 0x680 PUSH2 0x1753 JUMP JUMPDEST PUSH1 0x0 PUSH2 0x68B DUP3 PUSH2 0x1780 JUMP JUMPDEST PUSH1 0x1 PUSH1 0x1 PUSH1 0xA0 SHL SUB AND SUB PUSH2 0x6B1 JUMPI PUSH1 0x40 MLOAD PUSH3 0x461BCD PUSH1 0xE5 SHL DUP2 MSTORE PUSH1 0x4 ADD PUSH2 0x5EE SWAP1 PUSH2 0x286E JUMP JUMPDEST PUSH1 0x0 DUP2 DUP2 MSTORE PUSH1 0xA PUSH1 0x20 SWAP1 DUP2 MSTORE PUSH1 0x40 DUP1 DUP4 KECCAK256 PUSH1 0x4 ADD DUP1 SLOAD PUSH1 0xFF NOT AND SWAP1 SSTORE DUP1 MLOAD SWAP3 DUP4 MSTORE CALLER SWAP2 DUP4 ADD SWAP2 SWAP1 SWAP2 MSTORE DUP3 SWAP2 PUSH32 0xE4249DB6CF389874FBC59E44257BA1A19D71794FB56324EBE6166C14C447CF38 SWAP2 ADD JUMPDEST PUSH1 0x40 MLOAD DUP1 SWAP2 SUB SWAP1 LOG2 POP JUMP JUMPDEST PUSH1 0x0 PUSH2 0x4F8 DUP3 PUSH2 0x1681 JUMP JUMPDEST PUSH2 0x753 PUSH1 0x40 MLOAD DUP1 PUSH1 0xA0 ADD PUSH1 0x40 MSTORE DUP1 PUSH1 0x60 DUP2 MSTORE PUSH1 0x20 ADD PUSH1 0x0 PUSH1 0x1 PUSH1 0x1 PUSH1 0xA0 SHL SUB AND DUP2 MSTORE PUSH1 0x20 ADD PUSH1 0x60 DUP2 MSTORE PUSH1 0x20 ADD PUSH1 0x0 DUP2 MSTORE PUSH1 0x20 ADD PUSH1 0x0 ISZERO ISZERO DUP2 MSTORE POP SWAP1 JUMP JUMPDEST PUSH1 0x0 PUSH2 0x75E DUP4 PUSH2 0x1780 JUMP JUMPDEST PUSH1 0x1 PUSH1 0x1 PUSH1 0xA0 SHL SUB AND SUB PUSH2 0x784 JUMPI PUSH1 0x40 MLOAD PUSH3 0x461BCD PUSH1 0xE5 SHL DUP2 MSTORE PUSH1 0x4 ADD PUSH2 0x5EE SWAP1 PUSH2 0x286E JUMP JUMPDEST PUSH1 0x0 DUP3 DUP2 MSTORE PUSH1 0xA PUSH1 0x20 MSTORE PUSH1 0x40 SWAP1 DUP2 SWAP1 KECCAK256 DUP2 MLOAD PUSH1 0xA0 DUP2 ADD SWAP1 SWAP3 MSTORE DUP1 SLOAD DUP3 SWAP1 DUP3 SWAP1 PUSH2 0x7AC SWAP1 PUSH2 0x2834 JUMP JUMPDEST DUP1 PUSH1 0x1F ADD PUSH1 0x20 DUP1 SWAP2 DIV MUL PUSH1 0x20 ADD PUSH1 0x40 MLOAD SWAP1 DUP2 ADD PUSH1 0x40 MSTORE DUP1 SWAP3 SWAP2 SWAP1 DUP2 DUP2 MSTORE PUSH1 0x20 ADD DUP3 DUP1 SLOAD PUSH2 0x7D8 SWAP1 PUSH2 0x2834 JUMP JUMPDEST DUP1 ISZERO PUSH2 0x825 JUMPI DUP1 PUSH1 0x1F LT PUSH2 0x7FA JUMPI PUSH2 0x100 DUP1 DUP4 SLOAD DIV MUL DUP4 MSTORE SWAP2 PUSH1 0x20 ADD SWAP2 PUSH2 0x825 JUMP JUMPDEST DUP3 ADD SWAP2 SWAP1 PUSH1 0x0 MSTORE PUSH1 0x20 PUSH1 0x0 KECCAK256 SWAP1 JUMPDEST DUP2 SLOAD DUP2 MSTORE SWAP1 PUSH1 0x1 ADD SWAP1 PUSH1 0x20 ADD DUP1 DUP4 GT PUSH2 0x808 JUMPI DUP3 SWAP1 SUB PUSH1 0x1F AND DUP3 ADD SWAP2 JUMPDEST POP POP POP SWAP2 DUP4 MSTORE POP POP PUSH1 0x1 DUP3 ADD SLOAD PUSH1 0x1 PUSH1 0x1 PUSH1 0xA0 SHL SUB AND PUSH1 0x20 DUP3 ADD MSTORE PUSH1 0x2 DUP3 ADD DUP1 SLOAD PUSH1 0x40 SWAP1 SWAP3 ADD SWAP2 PUSH2 0x855 SWAP1 PUSH2 0x2834 JUMP JUMPDEST DUP1 PUSH1 0x1F ADD PUSH1 0x20 DUP1 SWAP2 DIV MUL PUSH1 0x20 ADD PUSH1 0x40 MLOAD SWAP1 DUP2 ADD PUSH1 0x40 MSTORE DUP1 SWAP3 SWAP2 SWAP1 DUP2 DUP2 MSTORE PUSH1 0x20 ADD DUP3 DUP1 SLOAD PUSH2 0x881 SWAP1 PUSH2 0x2834 JUMP JUMPDEST DUP1 ISZERO PUSH2 0x8CE JUMPI DUP1 PUSH1 0x1F LT PUSH2 0x8A3 JUMPI PUSH2 0x100 DUP1 DUP4 SLOAD DIV MUL DUP4 MSTORE SWAP2 PUSH1 0x20 ADD SWAP2 PUSH2 0x8CE JUMP JUMPDEST DUP3 ADD SWAP2 SWAP1 PUSH1 0x0 MSTORE PUSH1 0x20 PUSH1 0x0 KECCAK256 SWAP1 JUMPDEST DUP2 SLOAD DUP2 MSTORE SWAP1 PUSH1 0x1 ADD SWAP1 PUSH1 0x20 ADD DUP1 DUP4 GT PUSH2 0x8B1 JUMPI DUP3 SWAP1 SUB PUSH1 0x1F AND DUP3 ADD SWAP2 JUMPDEST POP POP POP SWAP2 DUP4 MSTORE POP POP PUSH1 0x3 DUP3 ADD SLOAD PUSH1 0x20 DUP3 ADD MSTORE PUSH1 0x4 SWAP1 SWAP2 ADD SLOAD PUSH1 0xFF AND ISZERO ISZERO PUSH1 0x40 SWAP1 SWAP2 ADD MSTORE SWAP3 SWAP2 POP POP JUMP JUMPDEST PUSH2 0x8FF PUSH2 0x1753 JUMP JUMPDEST PUSH1 0x1 PUSH1 0x1 PUSH1 0xA0 SHL SUB DUP2 AND PUSH1 0x0 SWAP1 DUP2 MSTORE PUSH1 0x9 PUSH1 0x20 MSTORE PUSH1 0x40 SWAP1 KECCAK256 SLOAD PUSH1 0xFF AND PUSH2 0x967 JUMPI PUSH1 0x40 MLOAD PUSH3 0x461BCD PUSH1 0xE5 SHL DUP2 MSTORE PUSH1 0x20 PUSH1 0x4 DUP3 ADD MSTORE PUSH1 0x1B PUSH1 0x24 DUP3 ADD MSTORE PUSH32 0x4D616E756661637475726572206E6F7420726567697374657265640000000000 PUSH1 0x44 DUP3 ADD MSTORE PUSH1 0x64 ADD PUSH2 0x5EE JUMP JUMPDEST PUSH1 0x1 PUSH1 0x1 PUSH1 0xA0 SHL SUB DUP2 AND PUSH1 0x0 SWAP1 DUP2 MSTORE PUSH1 0x9 PUSH1 0x20 SWAP1 DUP2 MSTORE PUSH1 0x40 DUP1 DUP4 KECCAK256 DUP1 SLOAD PUSH1 0xFF NOT AND SWAP1 SSTORE PUSH1 0xC SWAP1 SWAP2 MSTORE DUP2 KECCAK256 PUSH2 0x99A SWAP2 PUSH2 0x2309 JUMP JUMPDEST PUSH1 0x40 MLOAD PUSH1 0x1 PUSH1 0x1 PUSH1 0xA0 SHL SUB DUP3 AND SWAP1 PUSH32 0x2FED5ABF6A80D6DFE30B4895481B2FC5D7DCE5F8F7B931832F4A2947D5040C7F SWAP1 PUSH1 0x0 SWAP1 LOG2 POP JUMP JUMPDEST PUSH1 0x0 PUSH1 0x1 PUSH1 0x1 PUSH1 0xA0 SHL SUB DUP3 AND PUSH2 0x9FD JUMPI PUSH1 0x40 MLOAD PUSH4 0x22718AD9 PUSH1 0xE2 SHL DUP2 MSTORE PUSH1 0x0 PUSH1 0x4 DUP3 ADD MSTORE PUSH1 0x24 ADD PUSH2 0x5EE JUMP JUMPDEST POP PUSH1 0x1 PUSH1 0x1 PUSH1 0xA0 SHL SUB AND PUSH1 0x0 SWAP1 DUP2 MSTORE PUSH1 0x3 PUSH1 0x20 MSTORE PUSH1 0x40 SWAP1 KECCAK256 SLOAD SWAP1 JUMP JUMPDEST PUSH2 0xA21 PUSH2 0x1753 JUMP JUMPDEST PUSH2 0xA2B PUSH1 0x0 PUSH2 0x179B JUMP JUMPDEST JUMP JUMPDEST PUSH1 0x1 PUSH1 0x1 PUSH1 0xA0 SHL SUB DUP2 AND PUSH1 0x0 SWAP1 DUP2 MSTORE PUSH1 0xC PUSH1 0x20 MSTORE PUSH1 0x40 SWAP1 KECCAK256 DUP1 SLOAD PUSH1 0x60 SWAP2 SWAP1 PUSH2 0xA54 SWAP1 PUSH2 0x2834 JUMP JUMPDEST DUP1 PUSH1 0x1F ADD PUSH1 0x20 DUP1 SWAP2 DIV MUL PUSH1 0x20 ADD PUSH1 0x40 MLOAD SWAP1 DUP2 ADD PUSH1 0x40 MSTORE DUP1 SWAP3 SWAP2 SWAP1 DUP2 DUP2 MSTORE PUSH1 0x20 ADD DUP3 DUP1 SLOAD PUSH2 0xA80 SWAP1 PUSH2 0x2834 JUMP JUMPDEST DUP1 ISZERO PUSH2 0xACD JUMPI DUP1 PUSH1 0x1F LT PUSH2 0xAA2 JUMPI PUSH2 0x100 DUP1 DUP4 SLOAD DIV MUL DUP4 MSTORE SWAP2 PUSH1 0x20 ADD SWAP2 PUSH2 0xACD JUMP JUMPDEST DUP3 ADD SWAP2 SWAP1 PUSH1 0x0 MSTORE PUSH1 0x20 PUSH1 0x0 KECCAK256 SWAP1 JUMPDEST DUP2 SLOAD DUP2 MSTORE SWAP1 PUSH1 0x1 ADD SWAP1 PUSH1 0x20 ADD DUP1 DUP4 GT PUSH2 0xAB0 JUMPI DUP3 SWAP1 SUB PUSH1 0x1F AND DUP3 ADD SWAP2 JUMPDEST POP POP POP POP POP SWAP1 POP SWAP2 SWAP1 POP JUMP JUMPDEST PUSH1 0xA PUSH1 0x20 MSTORE PUSH1 0x0 SWAP1 DUP2 MSTORE PUSH1 0x40 SWAP1 KECCAK256 DUP1 SLOAD DUP2 SWAP1 PUSH2 0xAF4 SWAP1 PUSH2 0x2834 JUMP JUMPDEST DUP1 PUSH1 0x1F ADD PUSH1 0x20 DUP1 SWAP2 DIV MUL PUSH1 0x20 ADD PUSH1 0x40 MLOAD SWAP1 DUP2 ADD PUSH1 0x40 MSTORE DUP1 SWAP3 SWAP2 SWAP1 DUP2 DUP2 MSTORE PUSH1 0x20 ADD DUP3 DUP1 SLOAD PUSH2 0xB20 SWAP1 PUSH2 0x2834 JUMP JUMPDEST DUP1 ISZERO PUSH2 0xB6D JUMPI DUP1 PUSH1 0x1F LT PUSH2 0xB42 JUMPI PUSH2 0x100 DUP1 DUP4 SLOAD DIV MUL DUP4 MSTORE SWAP2 PUSH1 0x20 ADD SWAP2 PUSH2 0xB6D JUMP JUMPDEST DUP3 ADD SWAP2 SWAP1 PUSH1 0x0 MSTORE PUSH1 0x20 PUSH1 0x0 KECCAK256 SWAP1 JUMPDEST DUP2 SLOAD DUP2 MSTORE SWAP1 PUSH1 0x1 ADD SWAP1 PUSH1 0x20 ADD DUP1 DUP4 GT PUSH2 0xB50 JUMPI DUP3 SWAP1 SUB PUSH1 0x1F AND DUP3 ADD SWAP2 JUMPDEST POP POP POP PUSH1 0x1 DUP5 ADD SLOAD PUSH1 0x2 DUP6 ADD DUP1 SLOAD SWAP5 SWAP6 PUSH1 0x1 PUSH1 0x1 PUSH1 0xA0 SHL SUB SWAP1 SWAP3 AND SWAP5 SWAP2 SWAP4 POP SWAP2 POP PUSH2 0xB97 SWAP1 PUSH2 0x2834 JUMP JUMPDEST DUP1 PUSH1 0x1F ADD PUSH1 0x20 DUP1 SWAP2 DIV MUL PUSH1 0x20 ADD PUSH1 0x40 MLOAD SWAP1 DUP2 ADD PUSH1 0x40 MSTORE DUP1 SWAP3 SWAP2 SWAP1 DUP2 DUP2 MSTORE PUSH1 0x20 ADD DUP3 DUP1 SLOAD PUSH2 0xBC3 SWAP1 PUSH2 0x2834 JUMP JUMPDEST DUP1 ISZERO PUSH2 0xC10 JUMPI DUP1 PUSH1 0x1F LT PUSH2 0xBE5 JUMPI PUSH2 0x100 DUP1 DUP4 SLOAD DIV MUL DUP4 MSTORE SWAP2 PUSH1 0x20 ADD SWAP2 PUSH2 0xC10 JUMP JUMPDEST DUP3 ADD SWAP2 SWAP1 PUSH1 0x0 MSTORE PUSH1 0x20 PUSH1 0x0 KECCAK256 SWAP1 JUMPDEST DUP2 SLOAD DUP2 MSTORE SWAP1 PUSH1 0x1 ADD SWAP1 PUSH1 0x20 ADD DUP1 DUP4 GT PUSH2 0xBF3 JUMPI DUP3 SWAP1 SUB PUSH1 0x1F AND DUP3 ADD SWAP2 JUMPDEST POP POP POP POP PUSH1 0x3 DUP4 ADD SLOAD PUSH1 0x4 SWAP1 SWAP4 ADD SLOAD SWAP2 SWAP3 SWAP2 PUSH1 0xFF AND SWAP1 POP DUP6 JUMP JUMPDEST PUSH1 0x0 PUSH1 0x60 DUP2 DUP2 DUP2 PUSH2 0xC3A DUP7 PUSH2 0x1780 JUMP JUMPDEST PUSH1 0x1 PUSH1 0x1 PUSH1 0xA0 SHL SUB AND SUB PUSH2 0xC60 JUMPI PUSH1 0x40 MLOAD PUSH3 0x461BCD PUSH1 0xE5 SHL DUP2 MSTORE PUSH1 0x4 ADD PUSH2 0x5EE SWAP1 PUSH2 0x286E JUMP JUMPDEST PUSH1 0x0 DUP6 DUP2 MSTORE PUSH1 0xA PUSH1 0x20 MSTORE PUSH1 0x40 DUP1 DUP3 KECCAK256 DUP2 MLOAD PUSH1 0xA0 DUP2 ADD SWAP1 SWAP3 MSTORE DUP1 SLOAD DUP3 SWAP1 DUP3 SWAP1 PUSH2 0xC87 SWAP1 PUSH2 0x2834 JUMP JUMPDEST DUP1 PUSH1 0x1F ADD PUSH1 0x20 DUP1 SWAP2 DIV MUL PUSH1 0x20 ADD PUSH1 0x40 MLOAD SWAP1 DUP2 ADD PUSH1 0x40 MSTORE DUP1 SWAP3 SWAP2 SWAP1 DUP2 DUP2 MSTORE PUSH1 0x20 ADD DUP3 DUP1 SLOAD PUSH2 0xCB3 SWAP1 PUSH2 0x2834 JUMP JUMPDEST DUP1 ISZERO PUSH2 0xD00 JUMPI DUP1 PUSH1 0x1F LT PUSH2 0xCD5 JUMPI PUSH2 0x100 DUP1 DUP4 SLOAD DIV MUL DUP4 MSTORE SWAP2 PUSH1 0x20 ADD SWAP2 PUSH2 0xD00 JUMP JUMPDEST DUP3 ADD SWAP2 SWAP1 PUSH1 0x0 MSTORE PUSH1 0x20 PUSH1 0x0 KECCAK256 SWAP1 JUMPDEST DUP2 SLOAD DUP2 MSTORE SWAP1 PUSH1 0x1 ADD SWAP1 PUSH1 0x20 ADD DUP1 DUP4 GT PUSH2 0xCE3 JUMPI DUP3 SWAP1 SUB PUSH1 0x1F AND DUP3 ADD SWAP2 JUMPDEST POP POP POP SWAP2 DUP4 MSTORE POP POP PUSH1 0x1 DUP3 ADD SLOAD PUSH1 0x1 PUSH1 0x1 PUSH1 0xA0 SHL SUB AND PUSH1 0x20 DUP3 ADD MSTORE PUSH1 0x2 DUP3 ADD DUP1 SLOAD PUSH1 0x40 SWAP1 SWAP3 ADD SWAP2 PUSH2 0xD30 SWAP1 PUSH2 0x2834 JUMP JUMPDEST DUP1 PUSH1 0x1F ADD PUSH1 0x20 DUP1 SWAP2 DIV MUL PUSH1 0x20 ADD PUSH1 0x40 MLOAD SWAP1 DUP2 ADD PUSH1 0x40 MSTORE DUP1 SWAP3 SWAP2 SWAP1 DUP2 DUP2 MSTORE PUSH1 0x20 ADD DUP3 DUP1 SLOAD PUSH2 0xD5C SWAP1 PUSH2 0x2834 JUMP JUMPDEST DUP1 ISZERO PUSH2 0xDA9 JUMPI DUP1 PUSH1 0x1F LT PUSH2 0xD7E JUMPI PUSH2 0x100 DUP1 DUP4 SLOAD DIV MUL DUP4 MSTORE SWAP2 PUSH1 0x20 ADD SWAP2 PUSH2 0xDA9 JUMP JUMPDEST DUP3 ADD SWAP2 SWAP1 PUSH1 0x0 MSTORE PUSH1 0x20 PUSH1 0x0 KECCAK256 SWAP1 JUMPDEST DUP2 SLOAD DUP2 MSTORE SWAP1 PUSH1 0x1 ADD SWAP1 PUSH1 0x20 ADD DUP1 DUP4 GT PUSH2 0xD8C JUMPI DUP3 SWAP1 SUB PUSH1 0x1F AND DUP3 ADD SWAP2 JUMPDEST POP POP POP SWAP2 DUP4 MSTORE POP POP PUSH1 0x3 DUP3 ADD SLOAD PUSH1 0x20 DUP3 ADD MSTORE PUSH1 0x4 SWAP1 SWAP2 ADD SLOAD PUSH1 0xFF AND ISZERO ISZERO PUSH1 0x40 SWAP1 SWAP2 ADD MSTORE DUP1 MLOAD SWAP1 SWAP2 POP PUSH1 0x0 SWAP1 PUSH2 0xDEB SWAP1 PUSH2 0xDE1 DUP10 PUSH2 0x148D JUMP JUMPDEST DUP5 PUSH1 0x20 ADD MLOAD PUSH2 0x17ED JUMP JUMPDEST PUSH32 0x19457468657265756D205369676E6564204D6573736167653A0A333200000000 PUSH1 0x0 SWAP1 DUP2 MSTORE PUSH1 0x1C DUP3 SWAP1 MSTORE PUSH1 0x3C DUP2 KECCAK256 SWAP2 SWAP3 POP POP PUSH1 0x0 PUSH2 0xE2E DUP3 DUP6 PUSH1 0x40 ADD MLOAD PUSH2 0x1823 JUMP JUMPDEST SWAP1 POP DUP4 PUSH1 0x20 ADD MLOAD PUSH1 0x1 PUSH1 0x1 PUSH1 0xA0 SHL SUB AND DUP2 PUSH1 0x1 PUSH1 0x1 PUSH1 0xA0 SHL SUB AND EQ DUP1 ISZERO PUSH2 0xE72 JUMPI POP PUSH1 0x20 DUP1 DUP6 ADD MLOAD PUSH1 0x1 PUSH1 0x1 PUSH1 0xA0 SHL SUB AND PUSH1 0x0 SWAP1 DUP2 MSTORE PUSH1 0x9 SWAP1 SWAP2 MSTORE PUSH1 0x40 SWAP1 KECCAK256 SLOAD PUSH1 0xFF AND JUMPDEST DUP1 ISZERO PUSH2 0xE7F JUMPI POP DUP4 PUSH1 0x80 ADD MLOAD JUMPDEST DUP5 MLOAD PUSH1 0x20 DUP1 DUP8 ADD MLOAD PUSH1 0x1 PUSH1 0x1 PUSH1 0xA0 SHL SUB DUP2 AND PUSH1 0x0 SWAP1 DUP2 MSTORE PUSH1 0xC SWAP1 SWAP3 MSTORE PUSH1 0x40 SWAP1 SWAP2 KECCAK256 DUP1 SLOAD SWAP4 SWAP12 POP DUP12 SWAP4 DUP2 SWAP1 PUSH2 0xEB2 SWAP1 PUSH2 0x2834 JUMP JUMPDEST DUP1 PUSH1 0x1F ADD PUSH1 0x20 DUP1 SWAP2 DIV MUL PUSH1 0x20 ADD PUSH1 0x40 MLOAD SWAP1 DUP2 ADD PUSH1 0x40 MSTORE DUP1 SWAP3 SWAP2 SWAP1 DUP2 DUP2 MSTORE PUSH1 0x20 ADD DUP3 DUP1 SLOAD PUSH2 0xEDE SWAP1 PUSH2 0x2834 JUMP JUMPDEST DUP1 ISZERO PUSH2 0xF2B JUMPI DUP1 PUSH1 0x1F LT PUSH2 0xF00 JUMPI PUSH2 0x100 DUP1 DUP4 SLOAD DIV MUL DUP4 MSTORE SWAP2 PUSH1 0x20 ADD SWAP2 PUSH2 0xF2B JUMP JUMPDEST DUP3 ADD SWAP2 SWAP1 PUSH1 0x0 MSTORE PUSH1 0x20 PUSH1 0x0 KECCAK256 SWAP1 JUMPDEST DUP2 SLOAD DUP2 MSTORE SWAP1 PUSH1 0x1 ADD SWAP1 PUSH1 0x20 ADD DUP1 DUP4 GT PUSH2 0xF0E JUMPI DUP3 SWAP1 SUB PUSH1 0x1F AND DUP3 ADD SWAP2 JUMPDEST POP POP POP POP POP SWAP1 POP SWAP8 POP SWAP8 POP SWAP8 POP SWAP8 POP POP POP POP POP SWAP2 SWAP4 POP SWAP2 SWAP4 JUMP JUMPDEST CALLER PUSH1 0x0 SWAP1 DUP2 MSTORE PUSH1 0x9 PUSH1 0x20 MSTORE PUSH1 0x40 DUP2 KECCAK256 SLOAD PUSH1 0xFF AND PUSH2 0xFA4 JUMPI PUSH1 0x40 MLOAD PUSH3 0x461BCD PUSH1 0xE5 SHL DUP2 MSTORE PUSH1 0x20 PUSH1 0x4 DUP3 ADD MSTORE PUSH1 0x1D PUSH1 0x24 DUP3 ADD MSTORE PUSH32 0x4E6F7420612072656769737465726564206D616E756661637475726572000000 PUSH1 0x44 DUP3 ADD MSTORE PUSH1 0x64 ADD PUSH2 0x5EE JUMP JUMPDEST PUSH1 0x1 PUSH1 0x1 PUSH1 0xA0 SHL SUB DUP6 AND PUSH2 0xFFA JUMPI PUSH1 0x40 MLOAD PUSH3 0x461BCD PUSH1 0xE5 SHL DUP2 MSTORE PUSH1 0x20 PUSH1 0x4 DUP3 ADD MSTORE PUSH1 0x1B PUSH1 0x24 DUP3 ADD MSTORE PUSH32 0x43616E6E6F74206D696E7420746F207A65726F20616464726573730000000000 PUSH1 0x44 DUP3 ADD MSTORE PUSH1 0x64 ADD PUSH2 0x5EE JUMP JUMPDEST PUSH1 0x0 DUP5 MLOAD GT PUSH2 0x104B JUMPI PUSH1 0x40 MLOAD PUSH3 0x461BCD PUSH1 0xE5 SHL DUP2 MSTORE PUSH1 0x20 PUSH1 0x4 DUP3 ADD MSTORE PUSH1 0x1A PUSH1 0x24 DUP3 ADD MSTORE PUSH32 0x50726F647563742049442063616E6E6F7420626520656D707479000000000000 PUSH1 0x44 DUP3 ADD MSTORE PUSH1 0x64 ADD PUSH2 0x5EE JUMP JUMPDEST PUSH1 0x0 DUP4 MLOAD GT PUSH2 0x109C JUMPI PUSH1 0x40 MLOAD PUSH3 0x461BCD PUSH1 0xE5 SHL DUP2 MSTORE PUSH1 0x20 PUSH1 0x4 DUP3 ADD MSTORE PUSH1 0x1C PUSH1 0x24 DUP3 ADD MSTORE PUSH32 0x4D65746164617461205552492063616E6E6F7420626520656D70747900000000 PUSH1 0x44 DUP3 ADD MSTORE PUSH1 0x64 ADD PUSH2 0x5EE JUMP JUMPDEST PUSH1 0xB DUP5 PUSH1 0x40 MLOAD PUSH2 0x10AC SWAP2 SWAP1 PUSH2 0x289C JUMP JUMPDEST SWAP1 DUP2 MSTORE PUSH1 0x40 MLOAD SWAP1 DUP2 SWAP1 SUB PUSH1 0x20 ADD SWAP1 KECCAK256 SLOAD PUSH1 0xFF AND ISZERO PUSH2 0x110C JUMPI PUSH1 0x40 MLOAD PUSH3 0x461BCD PUSH1 0xE5 SHL DUP2 MSTORE PUSH1 0x20 PUSH1 0x4 DUP3 ADD MSTORE PUSH1 0x19 PUSH1 0x24 DUP3 ADD MSTORE PUSH32 0x50726F6475637420494420616C72656164792065786973747300000000000000 PUSH1 0x44 DUP3 ADD MSTORE PUSH1 0x64 ADD PUSH2 0x5EE JUMP JUMPDEST PUSH2 0x1118 DUP5 DUP5 CALLER DUP6 PUSH2 0x184D JUMP JUMPDEST PUSH2 0x1158 JUMPI PUSH1 0x40 MLOAD PUSH3 0x461BCD PUSH1 0xE5 SHL DUP2 MSTORE PUSH1 0x20 PUSH1 0x4 DUP3 ADD MSTORE PUSH1 0x11 PUSH1 0x24 DUP3 ADD MSTORE PUSH17 0x496E76616C6964207369676E6174757265 PUSH1 0x78 SHL PUSH1 0x44 DUP3 ADD MSTORE PUSH1 0x64 ADD PUSH2 0x5EE JUMP JUMPDEST PUSH1 0x8 DUP1 SLOAD PUSH1 0x0 SWAP2 DUP3 PUSH2 0x1169 DUP4 PUSH2 0x28B8 JUMP JUMPDEST SWAP2 SWAP1 POP SSTORE SWAP1 POP PUSH1 0x1 PUSH1 0xB DUP7 PUSH1 0x40 MLOAD PUSH2 0x1181 SWAP2 SWAP1 PUSH2 0x289C JUMP JUMPDEST SWAP1 DUP2 MSTORE PUSH1 0x40 DUP1 MLOAD PUSH1 0x20 SWAP3 DUP2 SWAP1 SUB DUP4 ADD DUP2 KECCAK256 DUP1 SLOAD PUSH1 0xFF NOT AND SWAP5 ISZERO ISZERO SWAP5 SWAP1 SWAP5 OR SWAP1 SWAP4 SSTORE PUSH1 0xA0 DUP4 ADD DUP2 MSTORE DUP8 DUP4 MSTORE CALLER DUP3 DUP5 ADD MSTORE DUP3 DUP2 ADD DUP7 SWAP1 MSTORE TIMESTAMP PUSH1 0x60 DUP5 ADD MSTORE PUSH1 0x1 PUSH1 0x80 DUP5 ADD MSTORE PUSH1 0x0 DUP5 DUP2 MSTORE PUSH1 0xA SWAP1 SWAP3 MSTORE SWAP1 KECCAK256 DUP2 MLOAD DUP2 SWAP1 PUSH2 0x11DD SWAP1 DUP3 PUSH2 0x2925 JUMP JUMPDEST POP PUSH1 0x20 DUP3 ADD MLOAD PUSH1 0x1 DUP3 ADD DUP1 SLOAD PUSH1 0x1 PUSH1 0x1 PUSH1 0xA0 SHL SUB NOT AND PUSH1 0x1 PUSH1 0x1 PUSH1 0xA0 SHL SUB SWAP1 SWAP3 AND SWAP2 SWAP1 SWAP2 OR SWAP1 SSTORE PUSH1 0x40 DUP3 ADD MLOAD PUSH1 0x2 DUP3 ADD SWAP1 PUSH2 0x1218 SWAP1 DUP3 PUSH2 0x2925 JUMP JUMPDEST POP PUSH1 0x60 DUP3 ADD MLOAD PUSH1 0x3 DUP3 ADD SSTORE PUSH1 0x80 SWAP1 SWAP2 ADD MLOAD PUSH1 0x4 SWAP1 SWAP2 ADD DUP1 SLOAD PUSH1 0xFF NOT AND SWAP2 ISZERO ISZERO SWAP2 SWAP1 SWAP2 OR SWAP1 SSTORE CALLER PUSH1 0x0 SWAP1 DUP2 MSTORE PUSH1 0xD PUSH1 0x20 MSTORE PUSH1 0x40 DUP2 KECCAK256 DUP1 SLOAD SWAP2 PUSH2 0x1258 DUP4 PUSH2 0x28B8 JUMP JUMPDEST SWAP2 SWAP1 POP SSTORE POP PUSH2 0x1267 DUP7 DUP3 PUSH2 0x18B3 JUMP JUMPDEST PUSH2 0x1271 DUP2 DUP6 PUSH2 0x1918 JUMP JUMPDEST DUP6 PUSH1 0x1 PUSH1 0x1 PUSH1 0xA0 SHL SUB AND DUP2 CALLER PUSH1 0x1 PUSH1 0x1 PUSH1 0xA0 SHL SUB AND PUSH32 0x4A9562C207506F00039544BD22C252C285E76DD1E5367D66E9DDA58F7A5A146 DUP9 PUSH1 0x40 MLOAD PUSH2 0x12B5 SWAP2 SWAP1 PUSH2 0x23DA JUMP JUMPDEST PUSH1 0x40 MLOAD DUP1 SWAP2 SUB SWAP1 LOG4 SWAP6 SWAP5 POP POP POP POP POP JUMP JUMPDEST PUSH1 0x60 PUSH1 0x1 DUP1 SLOAD PUSH2 0x50D SWAP1 PUSH2 0x2834 JUMP JUMPDEST PUSH2 0x12DD PUSH2 0x1753 JUMP JUMPDEST PUSH1 0x1 PUSH1 0x1 PUSH1 0xA0 SHL SUB DUP3 AND PUSH2 0x1333 JUMPI PUSH1 0x40 MLOAD PUSH3 0x461BCD PUSH1 0xE5 SHL DUP2 MSTORE PUSH1 0x20 PUSH1 0x4 DUP3 ADD MSTORE PUSH1 0x1C PUSH1 0x24 DUP3 ADD MSTORE PUSH32 0x496E76616C6964206D616E756661637475726572206164647265737300000000 PUSH1 0x44 DUP3 ADD MSTORE PUSH1 0x64 ADD PUSH2 0x5EE JUMP JUMPDEST PUSH1 0x0 DUP2 MLOAD GT PUSH2 0x1384 JUMPI PUSH1 0x40 MLOAD PUSH3 0x461BCD PUSH1 0xE5 SHL DUP2 MSTORE PUSH1 0x20 PUSH1 0x4 DUP3 ADD MSTORE PUSH1 0x1A PUSH1 0x24 DUP3 ADD MSTORE PUSH32 0x4272616E64206E616D652063616E6E6F7420626520656D707479000000000000 PUSH1 0x44 DUP3 ADD MSTORE PUSH1 0x64 ADD PUSH2 0x5EE JUMP JUMPDEST PUSH1 0x1 PUSH1 0x1 PUSH1 0xA0 SHL SUB DUP3 AND PUSH1 0x0 SWAP1 DUP2 MSTORE PUSH1 0x9 PUSH1 0x20 MSTORE PUSH1 0x40 SWAP1 KECCAK256 SLOAD PUSH1 0xFF AND ISZERO PUSH2 0x13ED JUMPI PUSH1 0x40 MLOAD PUSH3 0x461BCD PUSH1 0xE5 SHL DUP2 MSTORE PUSH1 0x20 PUSH1 0x4 DUP3 ADD MSTORE PUSH1 0x1F PUSH1 0x24 DUP3 ADD MSTORE PUSH32 0x4D616E75666163747572657220616C7265616479207265676973746572656400 PUSH1 0x44 DUP3 ADD MSTORE PUSH1 0x64 ADD PUSH2 0x5EE JUMP JUMPDEST PUSH1 0x1 PUSH1 0x1 PUSH1 0xA0 SHL SUB DUP3 AND PUSH1 0x0 SWAP1 DUP2 MSTORE PUSH1 0x9 PUSH1 0x20 SWAP1 DUP2 MSTORE PUSH1 0x40 DUP1 DUP4 KECCAK256 DUP1 SLOAD PUSH1 0xFF NOT AND PUSH1 0x1 OR SWAP1 SSTORE PUSH1 0xC SWAP1 SWAP2 MSTORE SWAP1 KECCAK256 PUSH2 0x1424 DUP3 DUP3 PUSH2 0x2925 JUMP JUMPDEST POP DUP2 PUSH1 0x1 PUSH1 0x1 PUSH1 0xA0 SHL SUB AND PUSH32 0x3980E1C29ECF2BDFCE4E2793ED6EFCC338CB00238D58C95DE9000480ACC0CAEF DUP3 PUSH1 0x40 MLOAD PUSH2 0x145E SWAP2 SWAP1 PUSH2 0x23DA JUMP JUMPDEST PUSH1 0x40 MLOAD DUP1 SWAP2 SUB SWAP1 LOG2 POP POP JUMP JUMPDEST PUSH2 0x5C4 CALLER DUP4 DUP4 PUSH2 0x1968 JUMP JUMPDEST PUSH2 0x1480 DUP5 DUP5 DUP5 PUSH2 0x5C8 JUMP JUMPDEST PUSH2 0x652 CALLER DUP6 DUP6 DUP6 DUP6 PUSH2 0x1A07 JUMP JUMPDEST PUSH1 0x60 PUSH2 0x4F8 DUP3 PUSH2 0x1B32 JUMP JUMPDEST PUSH1 0xC PUSH1 0x20 MSTORE PUSH1 0x0 SWAP1 DUP2 MSTORE PUSH1 0x40 SWAP1 KECCAK256 DUP1 SLOAD PUSH2 0x14B1 SWAP1 PUSH2 0x2834 JUMP JUMPDEST DUP1 PUSH1 0x1F ADD PUSH1 0x20 DUP1 SWAP2 DIV MUL PUSH1 0x20 ADD PUSH1 0x40 MLOAD SWAP1 DUP2 ADD PUSH1 0x40 MSTORE DUP1 SWAP3 SWAP2 SWAP1 DUP2 DUP2 MSTORE PUSH1 0x20 ADD DUP3 DUP1 SLOAD PUSH2 0x14DD SWAP1 PUSH2 0x2834 JUMP JUMPDEST DUP1 ISZERO PUSH2 0x152A JUMPI DUP1 PUSH1 0x1F LT PUSH2 0x14FF JUMPI PUSH2 0x100 DUP1 DUP4 SLOAD DIV MUL DUP4 MSTORE SWAP2 PUSH1 0x20 ADD SWAP2 PUSH2 0x152A JUMP JUMPDEST DUP3 ADD SWAP2 SWAP1 PUSH1 0x0 MSTORE PUSH1 0x20 PUSH1 0x0 KECCAK256 SWAP1 JUMPDEST DUP2 SLOAD DUP2 MSTORE SWAP1 PUSH1 0x1 ADD SWAP1 PUSH1 0x20 ADD DUP1 DUP4 GT PUSH2 0x150D JUMPI DUP3 SWAP1 SUB PUSH1 0x1F AND DUP3 ADD SWAP2 JUMPDEST POP POP POP POP POP DUP2 JUMP JUMPDEST PUSH2 0x153A PUSH2 0x1753 JUMP JUMPDEST PUSH1 0x0 PUSH2 0x1545 DUP3 PUSH2 0x1780 JUMP JUMPDEST PUSH1 0x1 PUSH1 0x1 PUSH1 0xA0 SHL SUB AND SUB PUSH2 0x156B JUMPI PUSH1 0x40 MLOAD PUSH3 0x461BCD PUSH1 0xE5 SHL DUP2 MSTORE PUSH1 0x4 ADD PUSH2 0x5EE SWAP1 PUSH2 0x286E JUMP JUMPDEST PUSH1 0x0 DUP2 DUP2 MSTORE PUSH1 0xA PUSH1 0x20 SWAP1 DUP2 MSTORE PUSH1 0x40 SWAP2 DUP3 SWAP1 KECCAK256 PUSH1 0x4 ADD DUP1 SLOAD PUSH1 0xFF NOT AND PUSH1 0x1 SWAP1 DUP2 OR SWAP1 SWAP2 SSTORE DUP3 MLOAD SWAP1 DUP2 MSTORE CALLER SWAP2 DUP2 ADD SWAP2 SWAP1 SWAP2 MSTORE DUP3 SWAP2 PUSH32 0xE4249DB6CF389874FBC59E44257BA1A19D71794FB56324EBE6166C14C447CF38 SWAP2 ADD PUSH2 0x700 JUMP JUMPDEST PUSH1 0x1 PUSH1 0x1 PUSH1 0xA0 SHL SUB SWAP2 DUP3 AND PUSH1 0x0 SWAP1 DUP2 MSTORE PUSH1 0x5 PUSH1 0x20 SWAP1 DUP2 MSTORE PUSH1 0x40 DUP1 DUP4 KECCAK256 SWAP4 SWAP1 SWAP5 AND DUP3 MSTORE SWAP2 SWAP1 SWAP2 MSTORE KECCAK256 SLOAD PUSH1 0xFF AND SWAP1 JUMP JUMPDEST PUSH1 0x0 PUSH1 0xB DUP3 PUSH1 0x40 MLOAD PUSH2 0x1605 SWAP2 SWAP1 PUSH2 0x289C JUMP JUMPDEST SWAP1 DUP2 MSTORE PUSH1 0x40 MLOAD SWAP1 DUP2 SWAP1 SUB PUSH1 0x20 ADD SWAP1 KECCAK256 SLOAD PUSH1 0xFF AND SWAP3 SWAP2 POP POP JUMP JUMPDEST PUSH2 0x1626 PUSH2 0x1753 JUMP JUMPDEST PUSH1 0x1 PUSH1 0x1 PUSH1 0xA0 SHL SUB DUP2 AND PUSH2 0x1650 JUMPI PUSH1 0x40 MLOAD PUSH4 0x1E4FBDF7 PUSH1 0xE0 SHL DUP2 MSTORE PUSH1 0x0 PUSH1 0x4 DUP3 ADD MSTORE PUSH1 0x24 ADD PUSH2 0x5EE JUMP JUMPDEST PUSH2 0x1659 DUP2 PUSH2 0x179B JUMP JUMPDEST POP JUMP JUMPDEST PUSH1 0x0 PUSH1 0x1 PUSH1 0x1 PUSH1 0xE0 SHL SUB NOT DUP3 AND PUSH4 0x24832483 PUSH1 0xE1 SHL EQ DUP1 PUSH2 0x4F8 JUMPI POP PUSH2 0x4F8 DUP3 PUSH2 0x1C43 JUMP JUMPDEST PUSH1 0x0 DUP1 PUSH2 0x168D DUP4 PUSH2 0x1780 JUMP JUMPDEST SWAP1 POP PUSH1 0x1 PUSH1 0x1 PUSH1 0xA0 SHL SUB DUP2 AND PUSH2 0x4F8 JUMPI PUSH1 0x40 MLOAD PUSH4 0x7E273289 PUSH1 0xE0 SHL DUP2 MSTORE PUSH1 0x4 DUP2 ADD DUP5 SWAP1 MSTORE PUSH1 0x24 ADD PUSH2 0x5EE JUMP JUMPDEST PUSH2 0x673 DUP4 DUP4 DUP4 PUSH1 0x1 PUSH2 0x1C93 JUMP JUMPDEST PUSH1 0x0 DUP1 PUSH2 0x16D2 DUP5 PUSH2 0x1780 JUMP JUMPDEST SWAP1 POP PUSH1 0x0 PUSH2 0x16E1 DUP7 DUP7 DUP7 PUSH2 0x1D99 JUMP JUMPDEST SWAP1 POP PUSH1 0x1 PUSH1 0x1 PUSH1 0xA0 SHL SUB DUP3 AND ISZERO DUP1 ISZERO SWAP1 PUSH2 0x1703 JUMPI POP PUSH1 0x1 PUSH1 0x1 PUSH1 0xA0 SHL SUB DUP7 AND ISZERO ISZERO JUMPDEST ISZERO PUSH2 0x174A JUMPI DUP6 PUSH1 0x1 PUSH1 0x1 PUSH1 0xA0 SHL SUB AND DUP3 PUSH1 0x1 PUSH1 0x1 PUSH1 0xA0 SHL SUB AND DUP7 PUSH32 0xCEF86D37BA3DC1D682967CDE44D8050488734BF53166725B220B4D2E515E9E93 PUSH1 0x40 MLOAD PUSH1 0x40 MLOAD DUP1 SWAP2 SUB SWAP1 LOG4 JUMPDEST SWAP6 SWAP5 POP POP POP POP POP JUMP JUMPDEST PUSH1 0x7 SLOAD PUSH1 0x1 PUSH1 0x1 PUSH1 0xA0 SHL SUB AND CALLER EQ PUSH2 0xA2B JUMPI PUSH1 0x40 MLOAD PUSH4 0x118CDAA7 PUSH1 0xE0 SHL DUP2 MSTORE CALLER PUSH1 0x4 DUP3 ADD MSTORE PUSH1 0x24 ADD PUSH2 0x5EE JUMP JUMPDEST PUSH1 0x0 SWAP1 DUP2 MSTORE PUSH1 0x2 PUSH1 0x20 MSTORE PUSH1 0x40 SWAP1 KECCAK256 SLOAD PUSH1 0x1 PUSH1 0x1 PUSH1 0xA0 SHL SUB AND SWAP1 JUMP JUMPDEST PUSH1 0x7 DUP1 SLOAD PUSH1 0x1 PUSH1 0x1 PUSH1 0xA0 SHL SUB DUP4 DUP2 AND PUSH1 0x1 PUSH1 0x1 PUSH1 0xA0 SHL SUB NOT DUP4 AND DUP2 OR SWAP1 SWAP4 SSTORE PUSH1 0x40 MLOAD SWAP2 AND SWAP2 SWAP1 DUP3 SWAP1 PUSH32 0x8BE0079C531659141344CD1FD0A4F28419497F9722A3DAAFE3B4186F6B6457E0 SWAP1 PUSH1 0x0 SWAP1 LOG3 POP POP JUMP JUMPDEST PUSH1 0x0 DUP4 DUP4 DUP4 PUSH1 0x40 MLOAD PUSH1 0x20 ADD PUSH2 0x1804 SWAP4 SWAP3 SWAP2 SWAP1 PUSH2 0x29E5 JUMP JUMPDEST PUSH1 0x40 MLOAD PUSH1 0x20 DUP2 DUP4 SUB SUB DUP2 MSTORE SWAP1 PUSH1 0x40 MSTORE DUP1 MLOAD SWAP1 PUSH1 0x20 ADD KECCAK256 SWAP1 POP SWAP4 SWAP3 POP POP POP JUMP JUMPDEST PUSH1 0x0 DUP1 PUSH1 0x0 DUP1 PUSH2 0x1833 DUP7 DUP7 PUSH2 0x1E8D JUMP JUMPDEST SWAP3 POP SWAP3 POP SWAP3 POP PUSH2 0x1843 DUP3 DUP3 PUSH2 0x1EDA JUMP JUMPDEST POP SWAP1 SWAP5 SWAP4 POP POP POP POP JUMP JUMPDEST PUSH1 0x0 DUP1 PUSH2 0x185B DUP7 DUP7 DUP7 PUSH2 0x17ED JUMP JUMPDEST PUSH32 0x19457468657265756D205369676E6564204D6573736167653A0A333200000000 PUSH1 0x0 SWAP1 DUP2 MSTORE PUSH1 0x1C DUP3 SWAP1 MSTORE PUSH1 0x3C DUP2 KECCAK256 SWAP2 SWAP3 POP PUSH2 0x1897 DUP3 DUP7 PUSH2 0x1823 JUMP JUMPDEST PUSH1 0x1 PUSH1 0x1 PUSH1 0xA0 SHL SUB SWAP1 DUP2 AND SWAP1 DUP8 AND EQ SWAP4 POP POP POP POP SWAP5 SWAP4 POP POP POP POP JUMP JUMPDEST PUSH1 0x1 PUSH1 0x1 PUSH1 0xA0 SHL SUB DUP3 AND PUSH2 0x18DD JUMPI PUSH1 0x40 MLOAD PUSH4 0x32505749 PUSH1 0xE1 SHL DUP2 MSTORE PUSH1 0x0 PUSH1 0x4 DUP3 ADD MSTORE PUSH1 0x24 ADD PUSH2 0x5EE JUMP JUMPDEST PUSH1 0x0 PUSH2 0x18EB DUP4 DUP4 PUSH1 0x0 PUSH2 0x16C6 JUMP JUMPDEST SWAP1 POP PUSH1 0x1 PUSH1 0x1 PUSH1 0xA0 SHL SUB DUP2 AND ISZERO PUSH2 0x673 JUMPI PUSH1 0x40 MLOAD PUSH4 0x39E35637 PUSH1 0xE1 SHL DUP2 MSTORE PUSH1 0x0 PUSH1 0x4 DUP3 ADD MSTORE PUSH1 0x24 ADD PUSH2 0x5EE JUMP JUMPDEST PUSH1 0x0 DUP3 DUP2 MSTORE PUSH1 0x6 PUSH1 0x20 MSTORE PUSH1 0x40 SWAP1 KECCAK256 PUSH2 0x1930 DUP3 DUP3 PUSH2 0x2925 JUMP JUMPDEST POP PUSH1 0x40 MLOAD DUP3 DUP2 MSTORE PUSH32 0xF8E1A15ABA9398E019F0B49DF1A4FDE98EE17AE345CB5F6B5E2C27F5033E8CE7 SWAP1 PUSH1 0x20 ADD PUSH1 0x40 MLOAD DUP1 SWAP2 SUB SWAP1 LOG1 POP POP JUMP JUMPDEST PUSH1 0x1 PUSH1 0x1 PUSH1 0xA0 SHL SUB DUP3 AND PUSH2 0x199A JUMPI PUSH1 0x40 MLOAD PUSH4 0xB611743 PUSH1 0xE3 SHL DUP2 MSTORE PUSH1 0x1 PUSH1 0x1 PUSH1 0xA0 SHL SUB DUP4 AND PUSH1 0x4 DUP3 ADD MSTORE PUSH1 0x24 ADD PUSH2 0x5EE JUMP JUMPDEST PUSH1 0x1 PUSH1 0x1 PUSH1 0xA0 SHL SUB DUP4 DUP2 AND PUSH1 0x0 DUP2 DUP2 MSTORE PUSH1 0x5 PUSH1 0x20 SWAP1 DUP2 MSTORE PUSH1 0x40 DUP1 DUP4 KECCAK256 SWAP5 DUP8 AND DUP1 DUP5 MSTORE SWAP5 DUP3 MSTORE SWAP2 DUP3 SWAP1 KECCAK256 DUP1 SLOAD PUSH1 0xFF NOT AND DUP7 ISZERO ISZERO SWAP1 DUP2 OR SWAP1 SWAP2 SSTORE SWAP2 MLOAD SWAP2 DUP3 MSTORE PUSH32 0x17307EAB39AB6107E8899845AD3D59BD9653F200F220920489CA2B5937696C31 SWAP2 ADD PUSH1 0x40 MLOAD DUP1 SWAP2 SUB SWAP1 LOG3 POP POP POP JUMP JUMPDEST PUSH1 0x1 PUSH1 0x1 PUSH1 0xA0 SHL SUB DUP4 AND EXTCODESIZE ISZERO PUSH2 0x1B2B JUMPI PUSH1 0x40 MLOAD PUSH4 0xA85BD01 PUSH1 0xE1 SHL DUP2 MSTORE PUSH1 0x1 PUSH1 0x1 PUSH1 0xA0 SHL SUB DUP5 AND SWAP1 PUSH4 0x150B7A02 SWAP1 PUSH2 0x1A49 SWAP1 DUP9 SWAP1 DUP9 SWAP1 DUP8 SWAP1 DUP8 SWAP1 PUSH1 0x4 ADD PUSH2 0x2A30 JUMP JUMPDEST PUSH1 0x20 PUSH1 0x40 MLOAD DUP1 DUP4 SUB DUP2 PUSH1 0x0 DUP8 GAS CALL SWAP3 POP POP POP DUP1 ISZERO PUSH2 0x1A84 JUMPI POP PUSH1 0x40 DUP1 MLOAD PUSH1 0x1F RETURNDATASIZE SWAP1 DUP2 ADD PUSH1 0x1F NOT AND DUP3 ADD SWAP1 SWAP3 MSTORE PUSH2 0x1A81 SWAP2 DUP2 ADD SWAP1 PUSH2 0x2A6D JUMP JUMPDEST PUSH1 0x1 JUMPDEST PUSH2 0x1AED JUMPI RETURNDATASIZE DUP1 DUP1 ISZERO PUSH2 0x1AB2 JUMPI PUSH1 0x40 MLOAD SWAP2 POP PUSH1 0x1F NOT PUSH1 0x3F RETURNDATASIZE ADD AND DUP3 ADD PUSH1 0x40 MSTORE RETURNDATASIZE DUP3 MSTORE RETURNDATASIZE PUSH1 0x0 PUSH1 0x20 DUP5 ADD RETURNDATACOPY PUSH2 0x1AB7 JUMP JUMPDEST PUSH1 0x60 SWAP2 POP JUMPDEST POP DUP1 MLOAD PUSH1 0x0 SUB PUSH2 0x1AE5 JUMPI PUSH1 0x40 MLOAD PUSH4 0x32505749 PUSH1 0xE1 SHL DUP2 MSTORE PUSH1 0x1 PUSH1 0x1 PUSH1 0xA0 SHL SUB DUP6 AND PUSH1 0x4 DUP3 ADD MSTORE PUSH1 0x24 ADD PUSH2 0x5EE JUMP JUMPDEST DUP1 MLOAD PUSH1 0x20 DUP3 ADD REVERT JUMPDEST PUSH1 0x1 PUSH1 0x1 PUSH1 0xE0 SHL SUB NOT DUP2 AND PUSH4 0xA85BD01 PUSH1 0xE1 SHL EQ PUSH2 0x1B29 JUMPI PUSH1 0x40 MLOAD PUSH4 0x32505749 PUSH1 0xE1 SHL DUP2 MSTORE PUSH1 0x1 PUSH1 0x1 PUSH1 0xA0 SHL SUB DUP6 AND PUSH1 0x4 DUP3 ADD MSTORE PUSH1 0x24 ADD PUSH2 0x5EE JUMP JUMPDEST POP JUMPDEST POP POP POP POP POP JUMP JUMPDEST PUSH1 0x60 PUSH2 0x1B3D DUP3 PUSH2 0x1681 JUMP JUMPDEST POP PUSH1 0x0 DUP3 DUP2 MSTORE PUSH1 0x6 PUSH1 0x20 MSTORE PUSH1 0x40 DUP2 KECCAK256 DUP1 SLOAD PUSH2 0x1B57 SWAP1 PUSH2 0x2834 JUMP JUMPDEST DUP1 PUSH1 0x1F ADD PUSH1 0x20 DUP1 SWAP2 DIV MUL PUSH1 0x20 ADD PUSH1 0x40 MLOAD SWAP1 DUP2 ADD PUSH1 0x40 MSTORE DUP1 SWAP3 SWAP2 SWAP1 DUP2 DUP2 MSTORE PUSH1 0x20 ADD DUP3 DUP1 SLOAD PUSH2 0x1B83 SWAP1 PUSH2 0x2834 JUMP JUMPDEST DUP1 ISZERO PUSH2 0x1BD0 JUMPI DUP1 PUSH1 0x1F LT PUSH2 0x1BA5 JUMPI PUSH2 0x100 DUP1 DUP4 SLOAD DIV MUL DUP4 MSTORE SWAP2 PUSH1 0x20 ADD SWAP2 PUSH2 0x1BD0 JUMP JUMPDEST DUP3 ADD SWAP2 SWAP1 PUSH1 0x0 MSTORE PUSH1 0x20 PUSH1 0x0 KECCAK256 SWAP1 JUMPDEST DUP2 SLOAD DUP2 MSTORE SWAP1 PUSH1 0x1 ADD SWAP1 PUSH1 0x20 ADD DUP1 DUP4 GT PUSH2 0x1BB3 JUMPI DUP3 SWAP1 SUB PUSH1 0x1F AND DUP3 ADD SWAP2 JUMPDEST POP POP POP POP POP SWAP1 POP PUSH1 0x0 PUSH2 0x1BEE PUSH1 0x40 DUP1 MLOAD PUSH1 0x20 DUP2 ADD SWAP1 SWAP2 MSTORE PUSH1 0x0 DUP2 MSTORE SWAP1 JUMP JUMPDEST SWAP1 POP DUP1 MLOAD PUSH1 0x0 SUB PUSH2 0x1C00 JUMPI POP SWAP3 SWAP2 POP POP JUMP JUMPDEST DUP2 MLOAD ISZERO PUSH2 0x1C32 JUMPI DUP1 DUP3 PUSH1 0x40 MLOAD PUSH1 0x20 ADD PUSH2 0x1C1A SWAP3 SWAP2 SWAP1 PUSH2 0x2A8A JUMP JUMPDEST PUSH1 0x40 MLOAD PUSH1 0x20 DUP2 DUP4 SUB SUB DUP2 MSTORE SWAP1 PUSH1 0x40 MSTORE SWAP3 POP POP POP SWAP2 SWAP1 POP JUMP JUMPDEST PUSH2 0x1C3B DUP5 PUSH2 0x1F93 JUMP JUMPDEST SWAP5 SWAP4 POP POP POP POP JUMP JUMPDEST PUSH1 0x0 PUSH1 0x1 PUSH1 0x1 PUSH1 0xE0 SHL SUB NOT DUP3 AND PUSH4 0x80AC58CD PUSH1 0xE0 SHL EQ DUP1 PUSH2 0x1C74 JUMPI POP PUSH1 0x1 PUSH1 0x1 PUSH1 0xE0 SHL SUB NOT DUP3 AND PUSH4 0x5B5E139F PUSH1 0xE0 SHL EQ JUMPDEST DUP1 PUSH2 0x4F8 JUMPI POP PUSH4 0x1FFC9A7 PUSH1 0xE0 SHL PUSH1 0x1 PUSH1 0x1 PUSH1 0xE0 SHL SUB NOT DUP4 AND EQ PUSH2 0x4F8 JUMP JUMPDEST DUP1 DUP1 PUSH2 0x1CA7 JUMPI POP PUSH1 0x1 PUSH1 0x1 PUSH1 0xA0 SHL SUB DUP3 AND ISZERO ISZERO JUMPDEST ISZERO PUSH2 0x1D69 JUMPI PUSH1 0x0 PUSH2 0x1CB7 DUP5 PUSH2 0x1681 JUMP JUMPDEST SWAP1 POP PUSH1 0x1 PUSH1 0x1 PUSH1 0xA0 SHL SUB DUP4 AND ISZERO DUP1 ISZERO SWAP1 PUSH2 0x1CE3 JUMPI POP DUP3 PUSH1 0x1 PUSH1 0x1 PUSH1 0xA0 SHL SUB AND DUP2 PUSH1 0x1 PUSH1 0x1 PUSH1 0xA0 SHL SUB AND EQ ISZERO JUMPDEST DUP1 ISZERO PUSH2 0x1CF6 JUMPI POP PUSH2 0x1CF4 DUP2 DUP5 PUSH2 0x15C5 JUMP JUMPDEST ISZERO JUMPDEST ISZERO PUSH2 0x1D1F JUMPI PUSH1 0x40 MLOAD PUSH4 0xA9FBF51F PUSH1 0xE0 SHL DUP2 MSTORE PUSH1 0x1 PUSH1 0x1 PUSH1 0xA0 SHL SUB DUP5 AND PUSH1 0x4 DUP3 ADD MSTORE PUSH1 0x24 ADD PUSH2 0x5EE JUMP JUMPDEST DUP2 ISZERO PUSH2 0x1D67 JUMPI DUP4 DUP6 PUSH1 0x1 PUSH1 0x1 PUSH1 0xA0 SHL SUB AND DUP3 PUSH1 0x1 PUSH1 0x1 PUSH1 0xA0 SHL SUB AND PUSH32 0x8C5BE1E5EBEC7D5BD14F71427D1E84F3DD0314C0F7B2291E5B200AC8C7C3B925 PUSH1 0x40 MLOAD PUSH1 0x40 MLOAD DUP1 SWAP2 SUB SWAP1 LOG4 JUMPDEST POP JUMPDEST POP POP PUSH1 0x0 SWAP1 DUP2 MSTORE PUSH1 0x4 PUSH1 0x20 MSTORE PUSH1 0x40 SWAP1 KECCAK256 DUP1 SLOAD PUSH1 0x1 PUSH1 0x1 PUSH1 0xA0 SHL SUB NOT AND PUSH1 0x1 PUSH1 0x1 PUSH1 0xA0 SHL SUB SWAP3 SWAP1 SWAP3 AND SWAP2 SWAP1 SWAP2 OR SWAP1 SSTORE JUMP JUMPDEST PUSH1 0x0 DUP1 PUSH2 0x1DA5 DUP5 PUSH2 0x1780 JUMP JUMPDEST SWAP1 POP PUSH1 0x1 PUSH1 0x1 PUSH1 0xA0 SHL SUB DUP4 AND ISZERO PUSH2 0x1DC1 JUMPI PUSH2 0x1DC1 DUP2 DUP5 DUP7 PUSH2 0x2008 JUMP JUMPDEST PUSH1 0x1 PUSH1 0x1 PUSH1 0xA0 SHL SUB DUP2 AND ISZERO PUSH2 0x1DFF JUMPI PUSH2 0x1DDE PUSH1 0x0 DUP6 PUSH1 0x0 DUP1 PUSH2 0x1C93 JUMP JUMPDEST PUSH1 0x1 PUSH1 0x1 PUSH1 0xA0 SHL SUB DUP2 AND PUSH1 0x0 SWAP1 DUP2 MSTORE PUSH1 0x3 PUSH1 0x20 MSTORE PUSH1 0x40 SWAP1 KECCAK256 DUP1 SLOAD PUSH1 0x0 NOT ADD SWAP1 SSTORE JUMPDEST PUSH1 0x1 PUSH1 0x1 PUSH1 0xA0 SHL SUB DUP6 AND ISZERO PUSH2 0x1E2E JUMPI PUSH1 0x1 PUSH1 0x1 PUSH1 0xA0 SHL SUB DUP6 AND PUSH1 0x0 SWAP1 DUP2 MSTORE PUSH1 0x3 PUSH1 0x20 MSTORE PUSH1 0x40 SWAP1 KECCAK256 DUP1 SLOAD PUSH1 0x1 ADD SWAP1 SSTORE JUMPDEST PUSH1 0x0 DUP5 DUP2 MSTORE PUSH1 0x2 PUSH1 0x20 MSTORE PUSH1 0x40 DUP1 DUP3 KECCAK256 DUP1 SLOAD PUSH1 0x1 PUSH1 0x1 PUSH1 0xA0 SHL SUB NOT AND PUSH1 0x1 PUSH1 0x1 PUSH1 0xA0 SHL SUB DUP10 DUP2 AND SWAP2 DUP3 OR SWAP1 SWAP3 SSTORE SWAP2 MLOAD DUP8 SWAP4 SWAP2 DUP6 AND SWAP2 PUSH32 0xDDF252AD1BE2C89B69C2B068FC378DAA952BA7F163C4A11628F55A4DF523B3EF SWAP2 LOG4 SWAP5 SWAP4 POP POP POP POP JUMP JUMPDEST PUSH1 0x0 DUP1 PUSH1 0x0 DUP4 MLOAD PUSH1 0x41 SUB PUSH2 0x1EC7 JUMPI PUSH1 0x20 DUP5 ADD MLOAD PUSH1 0x40 DUP6 ADD MLOAD PUSH1 0x60 DUP7 ADD MLOAD PUSH1 0x0 BYTE PUSH2 0x1EB9 DUP9 DUP3 DUP6 DUP6 PUSH2 0x206C JUMP JUMPDEST SWAP6 POP SWAP6 POP SWAP6 POP POP POP POP PUSH2 0x1ED3 JUMP JUMPDEST POP POP DUP2 MLOAD PUSH1 0x0 SWAP2 POP PUSH1 0x2 SWAP1 JUMPDEST SWAP3 POP SWAP3 POP SWAP3 JUMP JUMPDEST PUSH1 0x0 DUP3 PUSH1 0x3 DUP2 GT ISZERO PUSH2 0x1EEE JUMPI PUSH2 0x1EEE PUSH2 0x2AB9 JUMP JUMPDEST SUB PUSH2 0x1EF7 JUMPI POP POP JUMP JUMPDEST PUSH1 0x1 DUP3 PUSH1 0x3 DUP2 GT ISZERO PUSH2 0x1F0B JUMPI PUSH2 0x1F0B PUSH2 0x2AB9 JUMP JUMPDEST SUB PUSH2 0x1F29 JUMPI PUSH1 0x40 MLOAD PUSH4 0xF645EEDF PUSH1 0xE0 SHL DUP2 MSTORE PUSH1 0x4 ADD PUSH1 0x40 MLOAD DUP1 SWAP2 SUB SWAP1 REVERT JUMPDEST PUSH1 0x2 DUP3 PUSH1 0x3 DUP2 GT ISZERO PUSH2 0x1F3D JUMPI PUSH2 0x1F3D PUSH2 0x2AB9 JUMP JUMPDEST SUB PUSH2 0x1F5E JUMPI PUSH1 0x40 MLOAD PUSH4 0xFCE698F7 PUSH1 0xE0 SHL DUP2 MSTORE PUSH1 0x4 DUP2 ADD DUP3 SWAP1 MSTORE PUSH1 0x24 ADD PUSH2 0x5EE JUMP JUMPDEST PUSH1 0x3 DUP3 PUSH1 0x3 DUP2 GT ISZERO PUSH2 0x1F72 JUMPI PUSH2 0x1F72 PUSH2 0x2AB9 JUMP JUMPDEST SUB PUSH2 0x5C4 JUMPI PUSH1 0x40 MLOAD PUSH4 0x35E2F383 PUSH1 0xE2 SHL DUP2 MSTORE PUSH1 0x4 DUP2 ADD DUP3 SWAP1 MSTORE PUSH1 0x24 ADD PUSH2 0x5EE JUMP JUMPDEST PUSH1 0x60 PUSH2 0x1F9E DUP3 PUSH2 0x1681 JUMP JUMPDEST POP PUSH1 0x0 PUSH2 0x1FB6 PUSH1 0x40 DUP1 MLOAD PUSH1 0x20 DUP2 ADD SWAP1 SWAP2 MSTORE PUSH1 0x0 DUP2 MSTORE SWAP1 JUMP JUMPDEST SWAP1 POP PUSH1 0x0 DUP2 MLOAD GT PUSH2 0x1FD6 JUMPI PUSH1 0x40 MLOAD DUP1 PUSH1 0x20 ADD PUSH1 0x40 MSTORE DUP1 PUSH1 0x0 DUP2 MSTORE POP PUSH2 0x2001 JUMP JUMPDEST DUP1 PUSH2 0x1FE0 DUP5 PUSH2 0x213B JUMP JUMPDEST PUSH1 0x40 MLOAD PUSH1 0x20 ADD PUSH2 0x1FF1 SWAP3 SWAP2 SWAP1 PUSH2 0x2A8A JUMP JUMPDEST PUSH1 0x40 MLOAD PUSH1 0x20 DUP2 DUP4 SUB SUB DUP2 MSTORE SWAP1 PUSH1 0x40 MSTORE JUMPDEST SWAP4 SWAP3 POP POP POP JUMP JUMPDEST PUSH2 0x2013 DUP4 DUP4 DUP4 PUSH2 0x21CE JUMP JUMPDEST PUSH2 0x673 JUMPI PUSH1 0x1 PUSH1 0x1 PUSH1 0xA0 SHL SUB DUP4 AND PUSH2 0x2041 JUMPI PUSH1 0x40 MLOAD PUSH4 0x7E273289 PUSH1 0xE0 SHL DUP2 MSTORE PUSH1 0x4 DUP2 ADD DUP3 SWAP1 MSTORE PUSH1 0x24 ADD PUSH2 0x5EE JUMP JUMPDEST PUSH1 0x40 MLOAD PUSH4 0x177E802F PUSH1 0xE0 SHL DUP2 MSTORE PUSH1 0x1 PUSH1 0x1 PUSH1 0xA0 SHL SUB DUP4 AND PUSH1 0x4 DUP3 ADD MSTORE PUSH1 0x24 DUP2 ADD DUP3 SWAP1 MSTORE PUSH1 0x44 ADD PUSH2 0x5EE JUMP JUMPDEST PUSH1 0x0 DUP1 DUP1 PUSH32 0x7FFFFFFFFFFFFFFFFFFFFFFFFFFFFFFF5D576E7357A4501DDFE92F46681B20A0 DUP5 GT ISZERO PUSH2 0x20A7 JUMPI POP PUSH1 0x0 SWAP2 POP PUSH1 0x3 SWAP1 POP DUP3 PUSH2 0x2131 JUMP JUMPDEST PUSH1 0x40 DUP1 MLOAD PUSH1 0x0 DUP1 DUP3 MSTORE PUSH1 0x20 DUP3 ADD DUP1 DUP5 MSTORE DUP11 SWAP1 MSTORE PUSH1 0xFF DUP10 AND SWAP3 DUP3 ADD SWAP3 SWAP1 SWAP3 MSTORE PUSH1 0x60 DUP2 ADD DUP8 SWAP1 MSTORE PUSH1 0x80 DUP2 ADD DUP7 SWAP1 MSTORE PUSH1 0x1 SWAP1 PUSH1 0xA0 ADD PUSH1 0x20 PUSH1 0x40 MLOAD PUSH1 0x20 DUP2 SUB SWAP1 DUP1 DUP5 SUB SWAP1 DUP6 GAS STATICCALL ISZERO DUP1 ISZERO PUSH2 0x20FB JUMPI RETURNDATASIZE PUSH1 0x0 DUP1 RETURNDATACOPY RETURNDATASIZE PUSH1 0x0 REVERT JUMPDEST POP POP PUSH1 0x40 MLOAD PUSH1 0x1F NOT ADD MLOAD SWAP2 POP POP PUSH1 0x1 PUSH1 0x1 PUSH1 0xA0 SHL SUB DUP2 AND PUSH2 0x2127 JUMPI POP PUSH1 0x0 SWAP3 POP PUSH1 0x1 SWAP2 POP DUP3 SWAP1 POP PUSH2 0x2131 JUMP JUMPDEST SWAP3 POP PUSH1 0x0 SWAP2 POP DUP2 SWAP1 POP JUMPDEST SWAP5 POP SWAP5 POP SWAP5 SWAP2 POP POP JUMP JUMPDEST PUSH1 0x60 PUSH1 0x0 PUSH2 0x2148 DUP4 PUSH2 0x2231 JUMP JUMPDEST PUSH1 0x1 ADD SWAP1 POP PUSH1 0x0 DUP2 PUSH8 0xFFFFFFFFFFFFFFFF DUP2 GT ISZERO PUSH2 0x2168 JUMPI PUSH2 0x2168 PUSH2 0x25AA JUMP JUMPDEST PUSH1 0x40 MLOAD SWAP1 DUP1 DUP3 MSTORE DUP1 PUSH1 0x1F ADD PUSH1 0x1F NOT AND PUSH1 0x20 ADD DUP3 ADD PUSH1 0x40 MSTORE DUP1 ISZERO PUSH2 0x2192 JUMPI PUSH1 0x20 DUP3 ADD DUP2 DUP1 CALLDATASIZE DUP4 CALLDATACOPY ADD SWAP1 POP JUMPDEST POP SWAP1 POP DUP2 DUP2 ADD PUSH1 0x20 ADD JUMPDEST PUSH1 0x0 NOT ADD PUSH16 0x181899199A1A9B1B9C1CB0B131B232B3 PUSH1 0x81 SHL PUSH1 0xA DUP7 MOD BYTE DUP2 MSTORE8 PUSH1 0xA DUP6 DIV SWAP5 POP DUP5 PUSH2 0x219C JUMPI POP SWAP4 SWAP3 POP POP POP JUMP JUMPDEST PUSH1 0x0 PUSH1 0x1 PUSH1 0x1 PUSH1 0xA0 SHL SUB DUP4 AND ISZERO DUP1 ISZERO SWAP1 PUSH2 0x1C3B JUMPI POP DUP3 PUSH1 0x1 PUSH1 0x1 PUSH1 0xA0 SHL SUB AND DUP5 PUSH1 0x1 PUSH1 0x1 PUSH1 0xA0 SHL SUB AND EQ DUP1 PUSH2 0x2208 JUMPI POP PUSH2 0x2208 DUP5 DUP5 PUSH2 0x15C5 JUMP JUMPDEST DUP1 PUSH2 0x1C3B JUMPI POP POP PUSH1 0x0 SWAP1 DUP2 MSTORE PUSH1 0x4 PUSH1 0x20 MSTORE PUSH1 0x40 SWAP1 KECCAK256 SLOAD PUSH1 0x1 PUSH1 0x1 PUSH1 0xA0 SHL SUB SWAP1 DUP2 AND SWAP2 AND EQ SWAP2 SWAP1 POP JUMP JUMPDEST PUSH1 0x0 DUP1 PUSH19 0x184F03E93FF9F4DAA797ED6E38ED64BF6A1F01 PUSH1 0x40 SHL DUP4 LT PUSH2 0x2270 JUMPI PUSH19 0x184F03E93FF9F4DAA797ED6E38ED64BF6A1F01 PUSH1 0x40 SHL DUP4 DIV SWAP3 POP PUSH1 0x40 ADD JUMPDEST PUSH14 0x4EE2D6D415B85ACEF8100000000 DUP4 LT PUSH2 0x229C JUMPI PUSH14 0x4EE2D6D415B85ACEF8100000000 DUP4 DIV SWAP3 POP PUSH1 0x20 ADD JUMPDEST PUSH7 0x2386F26FC10000 DUP4 LT PUSH2 0x22BA JUMPI PUSH7 0x2386F26FC10000 DUP4 DIV SWAP3 POP PUSH1 0x10 ADD JUMPDEST PUSH4 0x5F5E100 DUP4 LT PUSH2 0x22D2 JUMPI PUSH4 0x5F5E100 DUP4 DIV SWAP3 POP PUSH1 0x8 ADD JUMPDEST PUSH2 0x2710 DUP4 LT PUSH2 0x22E6 JUMPI PUSH2 0x2710 DUP4 DIV SWAP3 POP PUSH1 0x4 ADD JUMPDEST PUSH1 0x64 DUP4 LT PUSH2 0x22F8 JUMPI PUSH1 0x64 DUP4 DIV SWAP3 POP PUSH1 0x2 ADD JUMPDEST PUSH1 0xA DUP4 LT PUSH2 0x4F8 JUMPI PUSH1 0x1 ADD SWAP3 SWAP2 POP POP JUMP JUMPDEST POP DUP1 SLOAD PUSH2 0x2315 SWAP1 PUSH2 0x2834 JUMP JUMPDEST PUSH1 0x0 DUP3 SSTORE DUP1 PUSH1 0x1F LT PUSH2 0x2325 JUMPI POP POP JUMP JUMPDEST PUSH1 0x1F ADD PUSH1 0x20 SWAP1 DIV SWAP1 PUSH1 0x0 MSTORE PUSH1 0x20 PUSH1 0x0 KECCAK256 SWAP1 DUP2 ADD SWAP1 PUSH2 0x1659 SWAP2 SWAP1 JUMPDEST DUP1 DUP3 GT ISZERO PUSH2 0x2353 JUMPI PUSH1 0x0 DUP2 SSTORE PUSH1 0x1 ADD PUSH2 0x233F JUMP JUMPDEST POP SWAP1 JUMP JUMPDEST PUSH1 0x1 PUSH1 0x1 PUSH1 0xE0 SHL SUB NOT DUP2 AND DUP2 EQ PUSH2 0x1659 JUMPI PUSH1 0x0 DUP1 REVERT JUMPDEST PUSH1 0x0 PUSH1 0x20 DUP3 DUP5 SUB SLT ISZERO PUSH2 0x237F JUMPI PUSH1 0x0 DUP1 REVERT JUMPDEST DUP2 CALLDATALOAD PUSH2 0x2001 DUP2 PUSH2 0x2357 JUMP JUMPDEST PUSH1 0x0 JUMPDEST DUP4 DUP2 LT ISZERO PUSH2 0x23A5 JUMPI DUP2 DUP2 ADD MLOAD DUP4 DUP3 ADD MSTORE PUSH1 0x20 ADD PUSH2 0x238D JUMP JUMPDEST POP POP PUSH1 0x0 SWAP2 ADD MSTORE JUMP JUMPDEST PUSH1 0x0 DUP2 MLOAD DUP1 DUP5 MSTORE PUSH2 0x23C6 DUP2 PUSH1 0x20 DUP7 ADD PUSH1 0x20 DUP7 ADD PUSH2 0x238A JUMP JUMPDEST PUSH1 0x1F ADD PUSH1 0x1F NOT AND SWAP3 SWAP1 SWAP3 ADD PUSH1 0x20 ADD SWAP3 SWAP2 POP POP JUMP JUMPDEST PUSH1 0x20 DUP2 MSTORE PUSH1 0x0 PUSH2 0x2001 PUSH1 0x20 DUP4 ADD DUP5 PUSH2 0x23AE JUMP JUMPDEST PUSH1 0x0 PUSH1 0x20 DUP3 DUP5 SUB SLT ISZERO PUSH2 0x23FF JUMPI PUSH1 0x0 DUP1 REVERT JUMPDEST POP CALLDATALOAD SWAP2 SWAP1 POP JUMP JUMPDEST DUP1 CALLDATALOAD PUSH1 0x1 PUSH1 0x1 PUSH1 0xA0 SHL SUB DUP2 AND DUP2 EQ PUSH2 0x241D JUMPI PUSH1 0x0 DUP1 REVERT JUMPDEST SWAP2 SWAP1 POP JUMP JUMPDEST PUSH1 0x0 DUP1 PUSH1 0x40 DUP4 DUP6 SUB SLT ISZERO PUSH2 0x2435 JUMPI PUSH1 0x0 DUP1 REVERT JUMPDEST PUSH2 0x243E DUP4 PUSH2 0x2406 JUMP JUMPDEST SWAP5 PUSH1 0x20 SWAP4 SWAP1 SWAP4 ADD CALLDATALOAD SWAP4 POP POP POP JUMP JUMPDEST PUSH1 0x0 PUSH1 0x20 DUP3 DUP5 SUB SLT ISZERO PUSH2 0x245E JUMPI PUSH1 0x0 DUP1 REVERT JUMPDEST PUSH2 0x2001 DUP3 PUSH2 0x2406 JUMP JUMPDEST PUSH1 0x0 DUP1 PUSH1 0x0 PUSH1 0x60 DUP5 DUP7 SUB SLT ISZERO PUSH2 0x247C JUMPI PUSH1 0x0 DUP1 REVERT JUMPDEST PUSH2 0x2485 DUP5 PUSH2 0x2406 JUMP JUMPDEST SWAP3 POP PUSH2 0x2493 PUSH1 0x20 DUP6 ADD PUSH2 0x2406 JUMP JUMPDEST SWAP2 POP PUSH1 0x40 DUP5 ADD CALLDATALOAD SWAP1 POP SWAP3 POP SWAP3 POP SWAP3 JUMP JUMPDEST PUSH1 0x20 DUP2 MSTORE PUSH1 0x0 DUP3 MLOAD PUSH1 0xA0 PUSH1 0x20 DUP5 ADD MSTORE PUSH2 0x24BF PUSH1 0xC0 DUP5 ADD DUP3 PUSH2 0x23AE JUMP JUMPDEST PUSH1 0x20 DUP6 ADD MLOAD PUSH1 0x1 PUSH1 0x1 PUSH1 0xA0 SHL SUB AND PUSH1 0x40 DUP6 DUP2 ADD SWAP2 SWAP1 SWAP2 MSTORE DUP6 ADD MLOAD DUP5 DUP3 SUB PUSH1 0x1F NOT ADD PUSH1 0x60 DUP7 ADD MSTORE SWAP1 SWAP2 POP PUSH2 0x24F2 DUP3 DUP3 PUSH2 0x23AE JUMP JUMPDEST SWAP2 POP POP PUSH1 0x60 DUP5 ADD MLOAD PUSH1 0x80 DUP5 ADD MSTORE PUSH1 0x80 DUP5 ADD MLOAD ISZERO ISZERO PUSH1 0xA0 DUP5 ADD MSTORE DUP1 SWAP2 POP POP SWAP3 SWAP2 POP POP JUMP JUMPDEST PUSH1 0xA0 DUP2 MSTORE PUSH1 0x0 PUSH2 0x2528 PUSH1 0xA0 DUP4 ADD DUP9 PUSH2 0x23AE JUMP JUMPDEST PUSH1 0x1 PUSH1 0x1 PUSH1 0xA0 SHL SUB DUP8 AND PUSH1 0x20 DUP5 ADD MSTORE DUP3 DUP2 SUB PUSH1 0x40 DUP5 ADD MSTORE PUSH2 0x2549 DUP2 DUP8 PUSH2 0x23AE JUMP JUMPDEST PUSH1 0x60 DUP5 ADD SWAP6 SWAP1 SWAP6 MSTORE POP POP SWAP1 ISZERO ISZERO PUSH1 0x80 SWAP1 SWAP2 ADD MSTORE SWAP4 SWAP3 POP POP POP JUMP JUMPDEST DUP5 ISZERO ISZERO DUP2 MSTORE PUSH1 0x80 PUSH1 0x20 DUP3 ADD MSTORE PUSH1 0x0 PUSH2 0x257E PUSH1 0x80 DUP4 ADD DUP7 PUSH2 0x23AE JUMP JUMPDEST PUSH1 0x1 PUSH1 0x1 PUSH1 0xA0 SHL SUB DUP6 AND PUSH1 0x40 DUP5 ADD MSTORE DUP3 DUP2 SUB PUSH1 0x60 DUP5 ADD MSTORE PUSH2 0x259F DUP2 DUP6 PUSH2 0x23AE JUMP JUMPDEST SWAP8 SWAP7 POP POP POP POP POP POP POP JUMP JUMPDEST PUSH4 0x4E487B71 PUSH1 0xE0 SHL PUSH1 0x0 MSTORE PUSH1 0x41 PUSH1 0x4 MSTORE PUSH1 0x24 PUSH1 0x0 REVERT JUMPDEST PUSH1 0x0 DUP3 PUSH1 0x1F DUP4 ADD SLT PUSH2 0x25D1 JUMPI PUSH1 0x0 DUP1 REVERT JUMPDEST DUP2 CALLDATALOAD PUSH8 0xFFFFFFFFFFFFFFFF DUP1 DUP3 GT ISZERO PUSH2 0x25EC JUMPI PUSH2 0x25EC PUSH2 0x25AA JUMP JUMPDEST PUSH1 0x40 MLOAD PUSH1 0x1F DUP4 ADD PUSH1 0x1F NOT SWAP1 DUP2 AND PUSH1 0x3F ADD AND DUP2 ADD SWAP1 DUP3 DUP3 GT DUP2 DUP4 LT OR ISZERO PUSH2 0x2614 JUMPI PUSH2 0x2614 PUSH2 0x25AA JUMP JUMPDEST DUP2 PUSH1 0x40 MSTORE DUP4 DUP2 MSTORE DUP7 PUSH1 0x20 DUP6 DUP9 ADD ADD GT ISZERO PUSH2 0x262D JUMPI PUSH1 0x0 DUP1 REVERT JUMPDEST DUP4 PUSH1 0x20 DUP8 ADD PUSH1 0x20 DUP4 ADD CALLDATACOPY PUSH1 0x0 PUSH1 0x20 DUP6 DUP4 ADD ADD MSTORE DUP1 SWAP5 POP POP POP POP POP SWAP3 SWAP2 POP POP JUMP JUMPDEST PUSH1 0x0 PUSH1 0x20 DUP3 DUP5 SUB SLT ISZERO PUSH2 0x265F JUMPI PUSH1 0x0 DUP1 REVERT JUMPDEST DUP2 CALLDATALOAD PUSH8 0xFFFFFFFFFFFFFFFF DUP2 GT ISZERO PUSH2 0x2676 JUMPI PUSH1 0x0 DUP1 REVERT JUMPDEST PUSH2 0x1C3B DUP5 DUP3 DUP6 ADD PUSH2 0x25C0 JUMP JUMPDEST PUSH1 0x0 DUP1 PUSH1 0x0 DUP1 PUSH1 0x80 DUP6 DUP8 SUB SLT ISZERO PUSH2 0x2698 JUMPI PUSH1 0x0 DUP1 REVERT JUMPDEST PUSH2 0x26A1 DUP6 PUSH2 0x2406 JUMP JUMPDEST SWAP4 POP PUSH1 0x20 DUP6 ADD CALLDATALOAD PUSH8 0xFFFFFFFFFFFFFFFF DUP1 DUP3 GT ISZERO PUSH2 0x26BE JUMPI PUSH1 0x0 DUP1 REVERT JUMPDEST PUSH2 0x26CA DUP9 DUP4 DUP10 ADD PUSH2 0x25C0 JUMP JUMPDEST SWAP5 POP PUSH1 0x40 DUP8 ADD CALLDATALOAD SWAP2 POP DUP1 DUP3 GT ISZERO PUSH2 0x26E0 JUMPI PUSH1 0x0 DUP1 REVERT JUMPDEST PUSH2 0x26EC DUP9 DUP4 DUP10 ADD PUSH2 0x25C0 JUMP JUMPDEST SWAP4 POP PUSH1 0x60 DUP8 ADD CALLDATALOAD SWAP2 POP DUP1 DUP3 GT ISZERO PUSH2 0x2702 JUMPI PUSH1 0x0 DUP1 REVERT JUMPDEST POP PUSH2 0x270F DUP8 DUP3 DUP9 ADD PUSH2 0x25C0 JUMP JUMPDEST SWAP2 POP POP SWAP3 SWAP6 SWAP2 SWAP5 POP SWAP3 POP JUMP JUMPDEST PUSH1 0x0 DUP1 PUSH1 0x40 DUP4 DUP6 SUB SLT ISZERO PUSH2 0x272E JUMPI PUSH1 0x0 DUP1 REVERT JUMPDEST PUSH2 0x2737 DUP4 PUSH2 0x2406 JUMP JUMPDEST SWAP2 POP PUSH1 0x20 DUP4 ADD CALLDATALOAD PUSH8 0xFFFFFFFFFFFFFFFF DUP2 GT ISZERO PUSH2 0x2753 JUMPI PUSH1 0x0 DUP1 REVERT JUMPDEST PUSH2 0x275F DUP6 DUP3 DUP7 ADD PUSH2 0x25C0 JUMP JUMPDEST SWAP2 POP POP SWAP3 POP SWAP3 SWAP1 POP JUMP JUMPDEST PUSH1 0x0 DUP1 PUSH1 0x40 DUP4 DUP6 SUB SLT ISZERO PUSH2 0x277C JUMPI PUSH1 0x0 DUP1 REVERT JUMPDEST PUSH2 0x2785 DUP4 PUSH2 0x2406 JUMP JUMPDEST SWAP2 POP PUSH1 0x20 DUP4 ADD CALLDATALOAD DUP1 ISZERO ISZERO DUP2 EQ PUSH2 0x279A JUMPI PUSH1 0x0 DUP1 REVERT JUMPDEST DUP1 SWAP2 POP POP SWAP3 POP SWAP3 SWAP1 POP JUMP JUMPDEST PUSH1 0x0 DUP1 PUSH1 0x0 DUP1 PUSH1 0x80 DUP6 DUP8 SUB SLT ISZERO PUSH2 0x27BB JUMPI PUSH1 0x0 DUP1 REVERT JUMPDEST PUSH2 0x27C4 DUP6 PUSH2 0x2406 JUMP JUMPDEST SWAP4 POP PUSH2 0x27D2 PUSH1 0x20 DUP7 ADD PUSH2 0x2406 JUMP JUMPDEST SWAP3 POP PUSH1 0x40 DUP6 ADD CALLDATALOAD SWAP2 POP PUSH1 0x60 DUP6 ADD CALLDATALOAD PUSH8 0xFFFFFFFFFFFFFFFF DUP2 GT ISZERO PUSH2 0x27F5 JUMPI PUSH1 0x0 DUP1 REVERT JUMPDEST PUSH2 0x270F DUP8 DUP3 DUP9 ADD PUSH2 0x25C0 JUMP JUMPDEST PUSH1 0x0 DUP1 PUSH1 0x40 DUP4 DUP6 SUB SLT ISZERO PUSH2 0x2814 JUMPI PUSH1 0x0 DUP1 REVERT JUMPDEST PUSH2 0x281D DUP4 PUSH2 0x2406 JUMP JUMPDEST SWAP2 POP PUSH2 0x282B PUSH1 0x20 DUP5 ADD PUSH2 0x2406 JUMP JUMPDEST SWAP1 POP SWAP3 POP SWAP3 SWAP1 POP JUMP JUMPDEST PUSH1 0x1 DUP2 DUP2 SHR SWAP1 DUP3 AND DUP1 PUSH2 0x2848 JUMPI PUSH1 0x7F DUP3 AND SWAP2 POP JUMPDEST PUSH1 0x20 DUP3 LT DUP2 SUB PUSH2 0x2868 JUMPI PUSH4 0x4E487B71 PUSH1 0xE0 SHL PUSH1 0x0 MSTORE PUSH1 0x22 PUSH1 0x4 MSTORE PUSH1 0x24 PUSH1 0x0 REVERT JUMPDEST POP SWAP2 SWAP1 POP JUMP JUMPDEST PUSH1 0x20 DUP1 DUP3 MSTORE PUSH1 0x14 SWAP1 DUP3 ADD MSTORE PUSH20 0x151BDAD95B88191BD95CC81B9BDD08195E1A5CDD PUSH1 0x62 SHL PUSH1 0x40 DUP3 ADD MSTORE PUSH1 0x60 ADD SWAP1 JUMP JUMPDEST PUSH1 0x0 DUP3 MLOAD PUSH2 0x28AE DUP2 DUP5 PUSH1 0x20 DUP8 ADD PUSH2 0x238A JUMP JUMPDEST SWAP2 SWAP1 SWAP2 ADD SWAP3 SWAP2 POP POP JUMP JUMPDEST PUSH1 0x0 PUSH1 0x1 DUP3 ADD PUSH2 0x28D8 JUMPI PUSH4 0x4E487B71 PUSH1 0xE0 SHL PUSH1 0x0 MSTORE PUSH1 0x11 PUSH1 0x4 MSTORE PUSH1 0x24 PUSH1 0x0 REVERT JUMPDEST POP PUSH1 0x1 ADD SWAP1 JUMP JUMPDEST PUSH1 0x1F DUP3 GT ISZERO PUSH2 0x673 JUMPI PUSH1 0x0 DUP2 DUP2 MSTORE PUSH1 0x20 DUP2 KECCAK256 PUSH1 0x1F DUP6 ADD PUSH1 0x5 SHR DUP2 ADD PUSH1 0x20 DUP7 LT ISZERO PUSH2 0x2906 JUMPI POP DUP1 JUMPDEST PUSH1 0x1F DUP6 ADD PUSH1 0x5 SHR DUP3 ADD SWAP2 POP JUMPDEST DUP2 DUP2 LT ISZERO PUSH2 0x1B29 JUMPI DUP3 DUP2 SSTORE PUSH1 0x1 ADD PUSH2 0x2912 JUMP JUMPDEST DUP2 MLOAD PUSH8 0xFFFFFFFFFFFFFFFF DUP2 GT ISZERO PUSH2 0x293F JUMPI PUSH2 0x293F PUSH2 0x25AA JUMP JUMPDEST PUSH2 0x2953 DUP2 PUSH2 0x294D DUP5 SLOAD PUSH2 0x2834 JUMP JUMPDEST DUP5 PUSH2 0x28DF JUMP JUMPDEST PUSH1 0x20 DUP1 PUSH1 0x1F DUP4 GT PUSH1 0x1 DUP2 EQ PUSH2 0x2988 JUMPI PUSH1 0x0 DUP5 ISZERO PUSH2 0x2970 JUMPI POP DUP6 DUP4 ADD MLOAD JUMPDEST PUSH1 0x0 NOT PUSH1 0x3 DUP7 SWAP1 SHL SHR NOT AND PUSH1 0x1 DUP6 SWAP1 SHL OR DUP6 SSTORE PUSH2 0x1B29 JUMP JUMPDEST PUSH1 0x0 DUP6 DUP2 MSTORE PUSH1 0x20 DUP2 KECCAK256 PUSH1 0x1F NOT DUP7 AND SWAP2 JUMPDEST DUP3 DUP2 LT ISZERO PUSH2 0x29B7 JUMPI DUP9 DUP7 ADD MLOAD DUP3 SSTORE SWAP5 DUP5 ADD SWAP5 PUSH1 0x1 SWAP1 SWAP2 ADD SWAP1 DUP5 ADD PUSH2 0x2998 JUMP JUMPDEST POP DUP6 DUP3 LT ISZERO PUSH2 0x29D5 JUMPI DUP8 DUP6 ADD MLOAD PUSH1 0x0 NOT PUSH1 0x3 DUP9 SWAP1 SHL PUSH1 0xF8 AND SHR NOT AND DUP2 SSTORE JUMPDEST POP POP POP POP POP PUSH1 0x1 SWAP1 DUP2 SHL ADD SWAP1 SSTORE POP JUMP JUMPDEST PUSH1 0x0 DUP5 MLOAD PUSH2 0x29F7 DUP2 DUP5 PUSH1 0x20 DUP10 ADD PUSH2 0x238A JUMP JUMPDEST DUP5 MLOAD SWAP1 DUP4 ADD SWAP1 PUSH2 0x2A0B DUP2 DUP4 PUSH1 0x20 DUP10 ADD PUSH2 0x238A JUMP JUMPDEST PUSH1 0x60 SWAP5 SWAP1 SWAP5 SHL PUSH12 0xFFFFFFFFFFFFFFFFFFFFFFFF NOT AND SWAP4 ADD SWAP3 DUP4 MSTORE POP POP PUSH1 0x14 ADD SWAP3 SWAP2 POP POP JUMP JUMPDEST PUSH1 0x1 PUSH1 0x1 PUSH1 0xA0 SHL SUB DUP6 DUP2 AND DUP3 MSTORE DUP5 AND PUSH1 0x20 DUP3 ADD MSTORE PUSH1 0x40 DUP2 ADD DUP4 SWAP1 MSTORE PUSH1 0x80 PUSH1 0x60 DUP3 ADD DUP2 SWAP1 MSTORE PUSH1 0x0 SWAP1 PUSH2 0x2A63 SWAP1 DUP4 ADD DUP5 PUSH2 0x23AE JUMP JUMPDEST SWAP7 SWAP6 POP POP POP POP POP POP JUMP JUMPDEST PUSH1 0x0 PUSH1 0x20 DUP3 DUP5 SUB SLT ISZERO PUSH2 0x2A7F JUMPI PUSH1 0x0 DUP1 REVERT JUMPDEST DUP2 MLOAD PUSH2 0x2001 DUP2 PUSH2 0x2357 JUMP JUMPDEST PUSH1 0x0 DUP4 MLOAD PUSH2 0x2A9C DUP2 DUP5 PUSH1 0x20 DUP9 ADD PUSH2 0x238A JUMP JUMPDEST DUP4 MLOAD SWAP1 DUP4 ADD SWAP1 PUSH2 0x2AB0 DUP2 DUP4 PUSH1 0x20 DUP9 ADD PUSH2 0x238A JUMP JUMPDEST ADD SWAP5 SWAP4 POP POP POP POP JUMP JUMPDEST PUSH4 0x4E487B71 PUSH1 0xE0 SHL PUSH1 0x0 MSTORE PUSH1 0x21 PUSH1 0x4 MSTORE PUSH1 0x24 PUSH1 0x0 REVERT INVALID LOG2 PUSH5 0x6970667358 0x22 SLT KECCAK256 DUP1 GAS LT CALLDATACOPY SWAP14 BYTE SWAP16 SWAP16 0xB5 PUSH5 0x6CCA208471 CALL SHL 0x2C 0x49 PUSH16 0x28267752E2F589D9C8D75B3064736F6C PUSH4 0x43000814 STOP CALLER "},"methodIdentifiers":{"approve(address,uint256)":"095ea7b3","balanceOf(address)":"70a08231","checkProductExists(string)":"eab03440","getApproved(uint256)":"081812fc","getManufacturerBrand(address)":"72544f90","getManufacturerTokenCount(address)":"bdf919f1","getNextTokenId()":"caa0f92a","getProductDetails(uint256)":"6813b53b","isApprovedForAll(address,address)":"e985e9c5","isManufacturer(address)":"17d4a491","manufacturerNames(address)":"cfcc4e22","manufacturerTokenCount(address)":"af562037","markAsUnverified(uint256)":"4638c117","mintProductNFT(address,string,string,bytes)":"923ad4df","name()":"06fdde03","owner()":"8da5cb5b","ownerOf(uint256)":"6352211e","productExists(string)":"8addc051","products(uint256)":"7acc0b20","reVerifyProduct(uint256)":"d7bf18b2","registerManufacturer(address,string)":"9e4e6634","removeManufacturer(address)":"6a75323f","renounceOwnership()":"715018a6","safeTransferFrom(address,address,uint256)":"42842e0e","safeTransferFrom(address,address,uint256,bytes)":"b88d4fde","setApprovalForAll(address,bool)":"a22cb465","supportsInterface(bytes4)":"01ffc9a7","symbol()":"95d89b41","tokenURI(uint256)":"c87b56dd","transferFrom(address,address,uint256)":"23b872dd","transferOwnership(address)":"f2fde38b","verifyAuthenticity(uint256)":"8ab0eab7"}}}}}